:020000040800F2
:10000000200D0020C900000823100008211000085E
:1000100000000000000000000000000000000000E0
:100020000000000000000000000000007510000843
:1000300000000000000000002510000879100008F2
:10004000DB00000800000000DB000008DB00000807
:10005000DB000008DB000008DB000008DB00000814
:1000600000000000DB000008DB000008DB000008E7
:10007000DB000008DB000008DB00000800000000D7
:10008000DB000008DB00000800000000DB000008C7
:10009000DB000008DB000008DB000008DB000008D4
:1000A000DB000008DB000008DB0000087D1700080B
:1000B000DB0000080348854600F014F800480047BC
:1000C000291B0008200D00200448804704480047F1
:1000D000FEE7FEE7FEE7FEE7FEE7FEE7D9100008D1
:1000E000B5000008064C0125064E05E0E36807CC84
:1000F0002B430C3C98471034B442F7D3FFF7DEFF94
:10010000702B0008902B000870B50446002903D01E
:1001100000202022012310E0002801D00020C0434D
:10012000C046C0460DE02546D5408D4205D30D465C
:100130009540641B1D46954040191546521E002DE2
:10014000F1DC214670BDD2B201E00270401C491EB4
:10015000FBD270470022F6E710B513460A46044664
:100160001946FFF7F0FF204610BD0000B0B582B081
:100170004A68537814782402E318154C2488A34263
:1001800020D3124D2D88AB421CD81B1B9278012A1C
:1001900006D0022A09D1DAB20E4B00249C5409E0A1
:1001A000DBB20C4C0122E25405E0DAB2094B9A5C56
:1001B000012A00D0022201230B8101AB4B601A708F
:1001C00001F042F8012002B0B0BDC046CA010020D3
:1001D000CC010020D6010020EFF3108072B6324827
:1001E0000068F14D3149884204D1281F016840223E
:1001F000914301602E4800682E4988420DD10126A6
:1002000070056968814369603102E94C204600F05D
:1002100083F87102204600F07FF8274801682748DC
:10022000814208D0264A914209D10121C9022A6897
:100230008A432A6003E06968022291436960214988
:100240000968814208D01E48814209D10120C002BC
:1002500029688143296003E0686802218843686057
:10026000194800681949884214D10124A00329685B
:10027000814329600920C006210300F04DF8CC48D5
:10028000C02100F049F8E00611490860BFF34F8F24
:10029000BFF36F8FBFF34F8F0E480F490160BFF35D
:1002A0004F8F00BFFDE7C0462C0000200030024009
:1002B00048000020005400409C0000200004004042
:1002C000002C0140E40000202C01002000380140F7
:1002D00080E100E00CED00E00400FA0510B50146F5
:1002E00020314A78022A10D1026813680E24A343F1
:1002F000136013680124A3431360C26B006C234690
:10030000834053604C70002002E00422826301208D
:1003100000220A7010BD0000F0B58BB00646A04860
:10032000864201D0052000E0032000900123002434
:100330002746039301910A965D1E0398A840024642
:100340000A4058D00597099029460C2525400F27CB
:100350000697AF40032007910890814393480858BF
:100360000297384004900926F6060A98B0420A9E81
:100370000CD08F48864207D08E488642009E059F4B
:10038000049806D1022604E0012600E00026059F1D
:100390000498AE40B04212D184480918814D2868B3
:1003A00090432860686890436860E8689043E8601C
:1003B000A8689043A8600868029A90430860089A69
:1003C000BA400A9E3068904330601C202040069D51
:1003D00085400798C00880003018016AA94301626F
:1003E000F0689043F0607068099988437060B06865
:1003F0009043B06001990846D840241DBF1C5B1C87
:10040000002899D10BB0F0BDF0B58BB00F68002F6C
:1004100000D1C2E002466248824201D0052000E0DD
:1004200003200090012400252B46019404910292A0
:10043000661E01980996B0400740059700D1A3E0D9
:10044000089303231A46AA40D2430E4629467568EC
:100450002E461E40771E012F07920691039412D854
:100460001746029A93683B40049CE7688F401F43FD
:100470009760EB06DB0F099FBB40576887431F431C
:1004800057602C4607E0032E029A2C4603D11E46E5
:10049000049F089B1FE0D068079B1840049FBB681F
:1004A00006998B400343D360022E089B13D11C2076
:1004B000184015460F228240099BDB089B00EB1871
:1004C0001E6A96433A69824032431A622A46089B62
:1004D0007C6803262640069DAE4010683946079F7B
:1004E000384030431060A003800F039C4CD0914AE9
:1004F0001168012001431160116801400A910C2725
:100500001F400F23BB4003260999B1430A9E274A87
:100510008E589E43029A254BC9180923DB069A423E
:1005200008D0234B9A4206D022488242009802D13A
:10053000022000E00020B84030430860194882687B
:1005400004994868C30202D5059F3A4301E0059F1C
:10055000BA43144B9A60DA68830201D53A4300E04B
:10056000BA43104BDA605A68830301D53A4300E07E
:10057000BA430C4B5A601A68C00301D53A4300E0F5
:10058000BA43089B074802600F683846E040AD1C3C
:100590001B1D641C002800D04AE70BB0F0BDC0460C
:1005A000000C0048000401401810024008000140FF
:1005B000000400480008004810B50E4800687D217E
:1005C000C900FFF7A1FD411E080E11D10A480B4AD0
:1005D00051600B490B6803400324A4071B190B60EF
:1005E00000239360072313600A6802401019086013
:1005F00010BDC04600000020FFFFFF0010E000E03B
:1006000020ED00E010B50D490A680C2313400C489A
:10061000082B08D193021B0F0AA4E45C896AD20359
:1006200003D4104807E0044606E00F22114009A257
:10063000515CFFF769FD4443204610BD04100240A1
:1006400000127A0002030405060708090A0B0C0DC4
:100650000E0F10100102030405060708090A0B0C0F
:100660000D0E0F1000093D00B0B53C23C35C012BFB
:1006700001D10220B0BD03463C3302245C70006807
:1006800044687025AC430C4381684460A44CA0428C
:1006900005D0074CA04202D0A24CA04203D1802436
:1006A000A143114381600020187001215970B0BD31
:1006B00000400140B0B582B0002819D00146044680
:1006C0003C3405463E356078002814D00220607026
:1006D00001C900F0C1FE0120287228706870A8705E
:1006E000E87028716871A871E8716070002000E0FE
:1006F000012002B0B0BD002020700868884A9042F6
:100700000DD0884A9042E1D10120C002094A136805
:10071000034313601268024001920198D6E705482E
:10072000426802231A4342604068184000900098D3
:10073000CCE7C04618100240F0B53C22825C012A8A
:1007400001D10220F0BD02463C32022353700468FE
:10075000A0684B4E3040A0600D6800234F2D1EDC7A
:100760001F2D36DD202D38D0302D36D0402D00D035
:1007700084E0206A256A0126B5432562A569F02632
:10078000B543CE6836012E43A6610A25A8434968C1
:1007900001432162A06847210143302067E06F2DAB
:1007A00023DD01204703BD423DD0000385421846AA
:1007B00060D0702D62D17736A06830404D688E6869
:1007C000C9682E43090231430143A160A068772123
:1007D00036E0002D01D0102D50D1A0687021884343
:1007E000054307202843A06043E0502D2AD0602D08
:1007F00044D1256A1020C043266A064026620F268F
:100800003603A769B743CE6836033E43A661A026E8
:10081000B5434968090129432162A16867250D4351
:100820000540A56025E07736A56835404E688F689D
:10083000C9683743090239432943A1608003A1688D
:10084000014315E0206A256A0126B5432562A569A2
:10085000F026B543CE6836012E43A6610A25A8438B
:10086000496801432162A068572101432020814348
:10087000A1601846137001215170F0BD0120F9E705
:100880008800FFFF70B586B0044601A81421FFF769
:1008900061FC2348844218D0C34884423ED10120E1
:1008A000400421490A6802430A6009680140009136
:1008B0000220059000210491039102900F20000274
:1008C000019000980920C00625E001246004164923
:1008D0000A6802430A600A68024000920098A00475
:1008E0000A6802430A6009680140009105940025E6
:1008F0000495039502260296C020019000980920D5
:10090000C00601A9FFF780FD0594049503950296A2
:1009100003200190054801A9FFF776FD06B070BDE0
:1009200000040040002C0140141002400004004864
:10093000F0B583B03C23C35C012B01D1022027E139
:1009400007463C370223DA41032A3AD80297C046C9
:100950007A441279520097440136495E0268156A5A
:10096000146A012084431462C84C14190A26F44105
:100970009D438E682E43536800930B6801939569DD
:10098000072C00D906E10346A340E1273B4200D1F2
:1009900002E10C239E43CB680427BB433343029FF1
:1009A000072C00D9A8E0A040E124204200D1A3E018
:1009B00003200002009E86434C6988693443044347
:1009C0009BE00120E2E00268106A136A1024A3434E
:1009D0001362202398438B681B01034350680D6802
:1009E0009469AD4EB24251D01E4656E00268106A7C
:1009F00001273B02146A9C4314627B0298438B6874
:100A00001B02034350680C680194D569A24EB242A0
:100A100057D01E465DE00268156A01263003136A4E
:100A200083431362994813180A20C34150688C68A5
:100A30000F680197D769072B00D9AFE000943446BF
:100A40009C40E1231C4200D1AAE0B30398434B69C8
:100A50009B010343009C10461C30536073231B0210
:100A60009F43019B1B023B43D3614B681364730399
:100A70009D4323032B431362F302D4691C43D461C7
:100A8000484BFF33D4691C40D46161E0C026B343B6
:100A9000CE6836014027BE431E437C4BD3180A273D
:100AA000FB41072B3DD801279F40E1231F4238D04F
:100AB00003239B0298434B698F691F43BB00034389
:100AC00030E00326B602B343CE683402354E2640EA
:100AD0001E436E4BD3180A24E341072B3CD89F409A
:100AE000E1231F4238D003231B0398434B698C69D1
:100AF0001C432301034330E0009C1046183054602F
:100B00007324A543019C254395614C68546313628B
:100B1000936908241C43946193690424A34393615B
:100B20002FE0034610461830536073231B029C438A
:100B30002B02234393614B68936316620123DB020C
:100B400094691C439461174BFF3394691C40946172
:100B500009690902029F15E00346029F10461C30F6
:100B6000536073239D43019B1D43D5614B68D36341
:100B70001662D36908241C43D461D3690424A343B7
:100B8000D361096902680A430260002000213970BC
:100B900003B0F0BD334603E7334600E703465AE7A8
:100BA000034657E700FBFFFF002C0140B0B50028CB
:100BB0001BD0014604463C3405463E35607800288B
:100BC00001D1002020700220607001C900F044FCB7
:100BD0000120287228706870A870E8702871687108
:100BE000A871E87160700020B0BD0120B0BD0000A8
:100BF00002463E32002905D0082909D0042909D12E
:100C0000531C08E01378012B3ED1022313700FE030
:100C1000931C00E0D31C1B78012B35D1022308293B
:100C200003D0042903D1537002E0937000E0D37025
:100C30001F221140012213468B400068016A99432C
:100C40000162016A19430162104941180A23D9411E
:100C5000072908D813468B40E1210B4203D0D1036A
:100C6000436C0B4343640A49884205D009498842D2
:100C700002D00949884204D1816807230B40062B22
:100C800002D00168114301607047C04600D4FEBF26
:100C90000004004000400140002C0140F0B581B04C
:100CA0006A4C21680120086202220A6204220A6258
:100CB00010260E6208250D62EFF3108180F3108874
:100CC0000922520123681F6897431F6081F310882F
:100CD000EFF3108180F31088226893688343936058
:100CE00081F31088216E012909D1EFF3108180F37F
:100CF000108822681368B343136081F31088216859
:100D0000896849061AD5EFF3108180F310882068AE
:100D1000826840239A43826081F31088606F0028C4
:100D20000CD000214163FFF7D9FA002806D0606F8C
:100D3000806B202802D1842026500CE05A2000210C
:100D4000215220680F22026282692A438261802038
:100D500020222250216600F003F801B0F0BDC04609
:100D6000F0B581B080233948C15820296CD18568FD
:100D700001210A03954205D10469002C02D1A04C3F
:100D8000E40761D1002404660668766836020DD552
:100D9000EFF31085009581F310888E0607683D6893
:100DA00035433D60009D85F3108885685A26815340
:100DB00058268153924E46658466002D07D0954291
:100DC00025460AD10569002D06D1214D05E00569AA
:100DD000002D01D07F2500E0FF25842684515C246E
:100DE00005532224C450EFF3108381F31088046864
:100DF000A5680D43A56083F3108803698468944255
:100E000004D1002B13D0134A826603E0114A826694
:100E1000002B0ED0EFF3108281F3108809214901D5
:100E2000006803680B43036082F310880CE00A4AF1
:100E30008266EFF3108281F3108800680168202336
:100E40000B43036082F3108801B0F0BD2C01002039
:100E5000FF0100003916000879150008F0B581B0CF
:100E6000F54CA17A66480078A289322A15D3002968
:100E700001D00021A1720021A181012809D164487B
:100E8000002121546148654A22525E4821520320C4
:100E9000A072FFF765FF01B0F0BD0025A58106290E
:100EA000F7D8C0467944097949008F4403041D3CB2
:100EB00051697200E1E75349625A521C6252534B26
:100EC000E65AF7B247407F005249C95B360A4E40A6
:100ED000E652218A09020818208290B20228D8D14D
:100EE000484825520420D3E74649625A531C6352AE
:100EF000454EA25B12021218A25398B20228C8D122
:100F00004248235A92B293425BD1228A002A56D099
:100F1000255265520520A0723F488242B9D33C4811
:100F200001212154B5E73749625A531C6352374BAC
:100F3000E65AF7B247407F003649C95B360A4E4051
:100F4000E652A073002AA4D12E48255201209FE723
:100F50008321C90060542B49625A531C63522B4BA6
:100F6000E65AF7B2474078002A4F385A360A4640C8
:100F7000E652002A8DD1244825526552022087E787
:100F80002349615C00291ED01E49605A401C6052F2
:100F90002BE01C49625A521C62521B49635A1B02C5
:100FA0001818605291B2022900D072E71849615CAA
:100FB000002906D11549615A80B2814201D100F061
:100FC000B1F8A57265E70F49625A531C63520F4B83
:100FD000E65AF7B247407F00E94BDB5B360A5E40DA
:100FE0000A4BE652A2189074605A218A80B2884255
:100FF00000D04EE70448255202482552062047E714
:10100000C8010020120400001604000014040000AF
:10101000190400003629000801040000C1C00000C6
:10102000FEE7FEE770470000B0B582B04B685A7823
:101030001B781B029C180D4B1B889C4211D30A4D38
:101040002D88AC420DD8D21AD2B2094B9A5C01233A
:101050000B8101AB4B60012A00D002221A7000F014
:10106000F3F8012002B0B0BDCA010020CC0100207D
:10107000D601002070470000F0B581B0F448016847
:10108000491C016013480078012820D16A4DA889C5
:10109000312801D8401CA881684EA85D002816D0D0
:1010A0009521C9006C180027616800290BD021899F
:1010B000002908D0491E2181090404D1F8B2214633
:1010C00000F010FDA85D14347F1C8742ECD301B002
:1010D000F0BDC046B40100207047000070B5104B51
:1010E000554AD458002C09D0D4180023132B12D001
:1010F0005B1CA5680834002DF8D101E0D41800234A
:10110000DD005519C726F600A85521604C48145C2F
:10111000D9B28C4200D970BD491C115470BDC04673
:101120003C060000F0B587B002AD14212846FFF759
:1011300011F8414CA07B28708320C000205CA8706F
:10114000208A28812046123003903C4FE05D002821
:101150001DD09521C900651800266A68002A12D0A2
:1011600002A909782B788B420DD1E868296905908E
:10117000069102A9204690470599069AE9602A61DE
:10118000002839D1E05D1435761C8642E5D3002075
:101190000690019005902A4EA05D002816D0C72128
:1011A000C900671801210D467A68002A0AD002A9F1
:1011B00089783B788B4205D102A9204690470028C8
:1011C0002BD1A05D0837691C8542ECD31D4EA05D74
:1011D00000282ED0DB21CF000125E259002A05D0BE
:1011E00002A920469047002812D1A05D3F1D691C2E
:1011F00085420D46F1D31CE0022818D0032818D1EF
:101200000020E8602861F0B2294600F06BFC10E095
:1012100003280ED10198E05103E0032809D1019879
:101220007860A05DA84204D1401EA05501E0688905
:10123000288107B0F0BDC04624020020EC06000063
:10124000ED060000EE060000F0B585B00A4601216B
:1012500051704A4BC518AB7A002B00D089E0464B41
:10126000C318A972107858701970C1214140C8B2D2
:101270004000434E315AC02048400393991C082334
:101280001C461789DF400F704740FFB27F00F75BB5
:10129000000A7840491C083C002B2346F1D1917884
:1012A000039B1971C0B248404000305A390A41408E
:1012B0009971000A58710721296000232B81108938
:1012C000686054680246002801D0002C51D0002AE2
:1012D0004AD0009407218020441A944200D3144637
:1012E000A7B2002F049319D002920098C218039855
:1012F000411801973B4617780F7028894740FFB285
:101300007F00F75B000A78402881521C5B1E491C55
:10131000002BF0D12968049B029A019FC91929600A
:10132000121B802908D180210398174600F02AF863
:101330003A46049B00212960E318002ACBD1686853
:10134000002811D008467F38012804D8039800F0FF
:1013500019F800212960687A039A50545018297AA4
:1013600041702868811C2960039800F00BF8002068
:10137000A87205B0F0BDC0461A0400009C0400002D
:1013800036290008F0B581B0304AD36F202B58D1F0
:10139000002856D00B0454D001231B0394689C42B0
:1013A00013D11569C30701D0002D4AD0842300242E
:1013B000D4505023D1522123D367EF4B1B685226C0
:1013C0009153002D0CD101460CE084230024D4500D
:1013D0005023D1522123D367E74B1B68522411536A
:1013E000002104465225565B1068002E1BD0E24EA9
:1013F000C7693F0605D43768FF1A2D2F1FD8076825
:10140000F6E7002C03D027780785641C05E00C88DC
:10141000104F3C400485891C0024575B7F1E5753A6
:10142000575B002FE4D1C169490608D4D2490C6842
:10143000E41A2D2C03D80468C4696406F7D520206B
:10144000D067FFF78DFC01B0F0BDC0462C01002035
:1014500018090020FF01000010B50468224B9842D3
:1014600002D0224A904204D1702294434A68224317
:1014700000E022461E4CA04206DC1C4CA0420CD0D0
:101480001F4CA04207D108E01A4B984205D01A4BD6
:10149000984202D0194B984223D103231B029A434E
:1014A000CB681343802293434A691A4302608A68D7
:1014B000C2620A688262134A82180A23DA41072A42
:1014C00006D801239340E122134201D00969016348
:1014D000012141610269D20702D002698A43026197
:1014E00010BD1346DEE7C046002C0140000400405A
:1014F000FF3F0140004001400048014000440140DE
:101500000020004000D4FEBF80B5406A0146523141
:1015100000220A8152214252FFF7C0FB80BDB0B5C4
:10152000EFF31082012181F3108809235B01046825
:1015300025689D43256082F31088EFF3108281F3C4
:10154000108803689C688C439C6082F31088026E4C
:10155000012A0AD1EFF3108281F3108801680B6829
:101560001024A3430B6082F3108880212022425074
:10157000002181660166B0BD70B5802142580168C6
:10158000222A0FD102465A325388898C1940436D62
:1015900019801188491E1180991C41651188002904
:1015A00005D070BD8869082202438A6170BD024679
:1015B0008032EFF31083012181F310880924640144
:1015C00005682E68A6432E6083F31088EFF310831E
:1015D00081F310880468A5688D43A56083F31088A3
:1015E0002023136000224266826603685B681B0248
:1015F0000AD5EFF3108381F310888C0605682E68F6
:10160000A6432E6083F31088036E012B11D102666E
:10161000EFF3108281F3108803681C6810218C435B
:101620001C6082F310880068C269D206B9D50162D5
:1016300070BDFFF713FC70BD70B580214258016882
:10164000222A10D102465A325388898C1940436DA0
:1016500019701188491E1180416D491C416511881E
:10166000002905D070BD8869082202438A6170BDD7
:1016700002468032EFF31083012181F310880924A0
:10168000640105682E68A6432E6083F31088EFF38B
:10169000108381F310880468A5688D43A56083F3E7
:1016A00010882023136000224266826603685B680C
:1016B0001B020AD5EFF3108381F310888C060568AE
:1016C0002E68A6432E6083F31088036E012B11D180
:1016D0000266EFF3108281F3108803681C68102102
:1016E0008C431C6082F310880068C269D206B9D5A9
:1016F000016270BDFFF7B2FB70BD0000F0B585B0B0
:101700000568EC690C4000268C4201D1344630E07B
:10171000039604467834029401240194E602049668
:10172000154F049C3E68B61A9E4212D82E68760762
:1017300009D5402907D0802905D0EE6936070AD49B
:10174000EE6926420BD1EE690E408E42EAD1039C2F
:101750000FE003240DE008210E46019C02E0032463
:10176000202604992962FFF7DAFE0020029908700A
:10177000CE60204605B0F0BD18090020F0B587B056
:10178000D44D2968CE690F68202005970490074042
:101790007842784101220692D3021C462F3434400D
:1017A000203C621E944104438C6847D018460F3099
:1017B00006423246059E06D0C748304001252C40DF
:1017C000201800D07AE01025304628404442444199
:1017D0001046284047424741BE48006E01280698FF
:1017E00000D138460028069800D1204600282CD089
:1017F00080213140484248411106069900D50146F2
:10180000002900D1E0E040210E40704270415206B4
:1018100000D5069006980028AE4C14D1EFF3108046
:10182000012282F31088226813688B43136080F3CF
:1018300010880020E0660498E06704E0A96E0029A3
:1018400001D0A448884707B0F0BD0D628868400603
:1018500000D5BCE05A229F4EB15A5820305AB25A95
:10186000002AF0D08842EED0EFF31080012181F3FE
:1018700010880922520133681C6894431C6080F36D
:101880001088EFF3108081F31088326893688B43DF
:10189000936080F310888020049A32500020B06654
:1018A0003066EFF3108081F3108831680A68AA432C
:1018B0000A6080F3108802207066C4E70293304605
:1018C00016462A020240504250413346F207069A19
:1018D00000D00246002A039507D10D6284207D4E78
:1018E0003258039D2A433250039D604260419A075B
:1018F000069A059E00D50246002A0BD102200862F6
:101900008420744A125801920422019D2A43714D89
:101910002A50039D604260415A07069A00D502464C
:10192000002A0BD10420086284206A4A12580192CE
:101930000222019D2A43674D2A50039D3C43604289
:1019400060411A07069C00D50446002C029A08D173
:101950000820086284225F4DAC580443AC50029AC0
:10196000039DA8060640704270411342069C00D0B9
:101970000446002C574E05D10A6284203258049C3C
:101980002243325084243059002800D15BE7049868
:10199000034078427841002B00D00690069800283A
:1019A00005D1B26E002A02D03046904731683059D6
:1019B00028220240886840252840801854D1FFF72B
:1019C0006DF9002030513EE74248C16E37E7414E85
:1019D000716F0868426890B2002800D133E758233D
:1019E000F35A984200D32EE75A24325388692028AC
:1019F00036D0EFF31080012181F31088384A20326D
:101A000033681E6816401E6080F31088EFF3108064
:101A100081F310882F4A126893688B43936080F398
:101A20001088EFF3108081F310882A4A12689368B7
:101A30004026B343274E936080F310888020049A99
:101A4000325000203066EFF3108081F31088316847
:101A50000A68AA430A6080F31088706FFEF73EFCA4
:101A600002207066305BEEE63046FFF758FD3068C6
:101A70008068400626D5EFF31080039981F3108823
:101A800031688A68AA438A6080F31088706F0028E2
:101A900018D001462031114A42634A78022A14D1F3
:101AA000026813680E24A34313601368039DAB43BD
:101AB0001360C26B036C2C469C40546000220A7079
:101AC0004D7004E0FFF7EAF8BDE604218163FFF7FB
:101AD0001BFDB8E62C0100202001000409150008B8
:101AE000DFFEFFFFB0B586B04A68002A16D00D466B
:101AF0000446C868096903460B4306D00591049063
:101B000000200290064801A990470020686005481F
:101B100003490A5C521EA24200D10A5406B0B0BD6D
:101B200024020020EC06000000B5A1B0CB4C2068D8
:101B30001021049108432060FEF73EFDC84EB069B5
:101B400001273843B061B0693840169016983807BD
:101B5000F1690143F161F1690140169116987068CD
:101B60000007800FBF4B16D070680C210140082978
:101B700004D118461030716801420CD030683843E7
:101B80003060B94801683268920705D40268521A79
:101B9000022AF8D954E13068306880211191084355
:101BA0007821069188433060706A38437062AE488D
:101BB0000068716A890705D4AB490968091A0229C6
:101BC000F7D93DE171680C200140A84D082900D0EB
:101BD0000AE17168F26A1033194200D030E10F2334
:101BE0001A4000D02CE19A0411400522D2049142FF
:101BF00000D025E12168C90707D1216801220A43E5
:101C000022602168C90700D11AE107210891090261
:101C100072680A4372607268F0239A4372606A1CA9
:101C20003368134200D10BE17268022305931A4313
:101C3000BA4372608C4A12688D4B75680540082D56
:101C400005D0894D2D68AD1A9D42F6D9F8E020687F
:101C5000706888437060FEF7D5FC71680906090F4B
:101C600084A2515CC84087490860FEF7A5FC306B30
:101C70000321099188433063306B049988433063B2
:101C800000241A94790470690843706170690291A4
:101C900008401D901D98B90470690843706170690F
:101CA000039108401D901D9809200090C0063F2117
:101CB0008162754A30259562199418941797169188
:101CC00016AE01903146FEF79FFB189717946F48A8
:101CD00016906D483146FEF797FB199418941797A4
:101CE000169569483146FEF78FFB69483E46876185
:101CF000C4600461047167490A46083A0260427D83
:101D0000002A0AD100220275554D6A6940231A4300
:101D10006A616A691A401692169A059A4275E243F8
:101D20008A600A6860230E939A430A600A68119BCE
:101D30009A430A60584D5949594F2F602A1D52C283
:101D40004675284610301421FEF704FA4122A85C9B
:101D50004B21C90012910028314633464F4E2AD1FB
:101D60004020002129543E4E70691746039A1043C3
:101D70007061706910401D90099819901891122097
:101D800017901298A83016901D9801241A9416A93D
:101D90003D481D46FEF738FB2B463A466005F16983
:101DA0000143F161F1693C4D01401D911D982F687F
:101DB0006E68AC68E968242014901592A8543868BD
:101DC000984338600F200C90020696433E61BA6833
:101DD00034480240BA60DA020D92DB0301290F9306
:101DE00030D11C43BC6061E0390632688A433260FE
:101DF0001D490A68691C33680B4205D01A490968F5
:101E0000891A0229F6D91BE0F26A0F239A43F2627B
:101E10003D221204736893430522D2049A1872601B
:101E2000214A521C3368134333600F4A12683368E7
:101E30000B4200D0DEE60C4B1B689B1A022BF6D936
:101E4000FEF7CAF9212292021443BC6002292DD167
:101E500079680D9A114379602DE0C0460020024058
:101E600000100240F0FF000018090020FFFFFF01F2
:101E700088130000000000000000000001020304BD
:101E80000607080900000020000400480CFC0000C0
:101E90002C00002008300240480000200A021000F8
:101EA00000540040FF7FFFFFFFFFFF000121C90238
:101EB0007A688A437A607968BA4A0A437A60F9682C
:101EC0000140F96029696A690A43A9690902114355
:101ED000F960E9692A6A0A433A60396801200143D6
:101EE0003960002169642022159E0A92AA5529634F
:101EF0004222A95440221092AB5C5B1E5C425C41C2
:101F0000AB5D203B2E465D1EAB412343012B97D09A
:101F1000159A149BB3543B6883433B603B68FA4D6E
:101F20002B403B603B683B603B6803433B600A9C43
:101F3000B454109BF154B35C202B81D1234604464A
:101F4000159D14987055109831543A68A2433A6020
:101F50000C9800023A6882433A603868204338603F
:101F60007355F648F64B9626F64A44C00160436026
:101F70008160C160016120911F911E910838FEF7B8
:101F800099FB002800D05BE7200310901D90EB48E0
:101F90001DA9FEF7D1FB00280E9F00D050E7254673
:101FA000F348FEF703FE002800D049E7F04800217F
:101FB0000A46FEF759FB002800D041E7169716ACF9
:101FC000201D18211591FEF7C5F8E9480027214684
:101FD0003A46FEF7ADFC002800D031E7E44816A9E8
:101FE0000422FEF7A5FC002800D029E7E04816A946
:101FF0000822FEF79DFC002800D021E7DC4C16A942
:102000000C222046FEF794FC002800D018E73C2064
:10201000215C012900D113E72754206869030C9142
:10202000416420463946FEF7E3FD04212046FEF7D1
:10203000DFFD08212046FEF7DBFD0C212046FEF7E0
:10204000D7FD2068FEF71EFCCB488761CB49C2C094
:10205000C8490160476020971F971E971C971B97E0
:102060001A9719970C38FEF725FB002800D0E7E6F1
:1020700010981D90C0481DA9FEF75EFB002800D0F7
:10208000DEE6BD48FEF792FD002800D0D8E6BA484B
:10209000002739463A46FEF7E7FA002800D0CFE697
:1020A0001A97189717970E981690B34816A93A469C
:1020B000FEF73EFC002800D0C2E6AF4816A9042275
:1020C000FEF736FC002800D0BAE6AB4816A9082275
:1020D000FEF72EFC002800D0B2E6A74E16A90C246D
:1020E00030462246FEF724FC002800D0A8E6304601
:1020F0003946FEF77DFD04213046FEF779FD0821C3
:1021000030460B91FEF774FD30462146FEF770FD18
:102110003068FEF7B7FB2146994CE1204002994E0A
:1021200026606060A760E76027616161A761E76181
:10213000276207976762AF03E06F002813950E9739
:1021400032D01498E0673068A843306030460168A8
:102150008D4A0A40A16823690B4365691D431543F5
:10216000E1690D430560099A120343689343E268ED
:102170001A434260A269236A13430B221202856844
:1021800095431D438560814A90420F9B00D1A3E097
:10219000B04200D09EE07E48006B8007000F7DA219
:1021A000105898E0008000022B460026069826541E
:1021B000774988693843886188693840169016984D
:1021C0004869029A10434861486910401690169871
:1021D0004869039A10434861486910401690169860
:1021E000099D19951896059F1797109816901A93A0
:1021F00016A903910198FEF707F91A9619951896F2
:102200001797C020169067480399FEF7FDF8FF2046
:10221000000665490A6882430A60139BD806634931
:1022200008601498E067616A206802689A43026057
:10223000002900D1C6E00A0705D542685C4B1A4068
:10224000636B13434360CA07139D0E9F4D4E05D029
:102250006A0443689343A26A1A4342608A0705D519
:102260002A0443689343E26A1A4342604A0705D549
:10227000AA0443689343226B1A434260CA0605D5F9
:1022800082682D4B1A40A36B134383608A0605D5E1
:1022900082680C9B9A43E36B134383604A060FD515
:1022A0002A0543689343256C2B4343609542139D55
:1022B00006D1099A520543689343626C1A434260FF
:1022C000090600D443E7E90442688A43A16C11433C
:1022D00041603CE704980790994221D10799082969
:1022E000344C139D00D923E233484900794489884E
:1022F00049008F440B001D0270001D026A001D0280
:102300001D021D026F00C046FFEFFFFF2B48006853
:102310001F4949684905490F294A515CC84056E0A0
:1023200007990829234C139D00D901E2224806A2EF
:102330004900515A49008F44FFEFFFFF9C000020E5
:10234000E7030000002C01401000FB016700FB01C7
:102350006100FB01FB01FB016600184800680C49A5
:1023600049684905490F164A515CC84048E0C046D3
:102370009C000020E7030000E4000020000400406F
:102380002C01002000380140F369FFFF00440040A9
:1023900000100240000000000400000008000000DF
:1023A000020000000004004818E400E000E100E042
:1023B000FF7FFFFF1809002000127A0000000020B4
:1023C000682B00080E9FF44EC1E6FEF71BF90028AB
:1023D00001D128E00F984000F64949684A081018D2
:1023E000FDF792FE01461039EC4A914200D39FE17D
:1023F000EA4901400007400F084311E0FEF702F9E7
:10240000002801D10FE00F98EA4949684A081018DE
:10241000FDF77AFE01461039E04A914200D387E188
:10242000E4490968C860E34B1868816839438160F2
:102430008168DE4A114081600168DF4A0A4002601B
:10244000016829430160842100225A509A6609924A
:10245000DA662268016809070A9C0DD52E466905CF
:10246000D4481546CF4BFFF749F9002800D065E165
:10247000D04800682A4635460068400708D5A905B7
:10248000CC4F3846C74BFFF739F9002800D063E13D
:10249000C84EF46711983450069809993154316642
:1024A0007166C64C2078002813D1C54DC0CD083DBB
:1024B00028460830DD21C900FDF74CFEC0C5139841
:1024C00020700220BF49FEF709FE0320BE49FEF737
:1024D00005FEFEF745FCC14FCB4EB14C2368B24818
:1024E00002690169BA48007852071193149108D41F
:1024F000002822D0BF48007800284BD0BC48006894
:1025000048E0002846D00998B14908702068216841
:10251000091AC929FBD3B048AE4A099BF95C0029C6
:1025200001D0159D00E0282502C814884C51921C4A
:102530005B1C082BF14CF1D12CE01398A8490870D2
:10254000A8490870A2490870A7490878401C08707B
:10255000C0B2082802D30020A34908709B4818186D
:10256000A2490860A248036000229B4B9948BD5CC9
:10257000002D01D0182500E0282510CB01886151DD
:10258000801C521C082ADD4CF1D120682168091AF0
:10259000C929FBD30B98149A0240974800789049B8
:1025A000097800291AD0002A18D10028119B10D1CF
:1025B0008F4803608C4A1078385C41424141107862
:1025C000395413988C49087020682168091AC92960
:1025D000FBD37E481818854908600CE0511E8A41DB
:1025E0000240012A07D10020834908702068216831
:1025F000091AC929FBD322687C48016814928A42CF
:1026000016D90898784908700021754801707548F6
:102610000170714A6F4B7C5C002C01D0182500E0E2
:10262000282510CA188860519B1C491C0829F2D122
:102630006D4800783B5CC822012B114600D01299EE
:10264000012B129B139D00D013466648007800288A
:1026500000D0194669480068149A101A8842A74C9D
:1026600017D361490878097849005A4A515A8000BD
:10267000594A105842690B4693430A401104C9183D
:102680008161584A10784142414111705B48149968
:102690000160454A1069810A2846884311690D9BEB
:1026A000194200D1801C1169109B194200D1001DF4
:1026B00011690C9B194200D1083011690E9B194217
:1026C00001D11021084311690F9A114202D10A99D0
:1026D000084301E0010606D0C0B2C00048490880A6
:1026E000C01F484908800025795D705D814206D091
:1026F00071552068454A1060E8B200F089F86D1CF9
:10270000082DF1D141480068002800D1E6E6216893
:10271000081A2749884200D8E0E600253B480560B2
:10272000795DE8B200F074F86D1C082DF8D1D5E69B
:102730000020204EB066F066FDF74EFDEFF31080EE
:1027400086F310881B4F39680A68119B9A430A6008
:1027500080F310887C3716E0EFF3108085F3108843
:10276000009949013A6813688B43136080F310881D
:10277000EFF3108085F3108839688A68AA438A606D
:1027800080F310888037069809990A4A11540A98EC
:102790003860FDF721FDC04600380140F0FF000021
:1027A00018090020FFFFFF0100040048FF7FFFFF22
:1027B000E70300002C010020FFFF00FCB401002013
:1027C00024020020291000086D01000810270000D5
:1027D00029000020362B0008482B0008D6010020D5
:1027E000C00100201409002024000020C4010020A2
:1027F000B80100202A00002028000020BC01002091
:10280000CA010020CC010020CE01002020020020BF
:10281000F0B581B0394A12680024394B394D1E5940
:10282000961BF6087D2E04D32E59642E01D13C262A
:102830002E51241D202CF2D100290ED0012918D1AF
:102840008100314C6658002E13D1611880001A5057
:1028500064222A50012008600BE081002A4C66584F
:10286000002E06D061188000264C002626501A50F3
:102870000E602868254FF9684E1C70436424214679
:10288000FDF742FC3F687863686870432146FDF7B6
:102890003BFCB863A86870432146FDF735FCF8633C
:1028A000E86870432146FDF72FFC38642869184F0B
:1028B000F9684E1C70432146FDF726FC3F6878639B
:1028C000686970432146FDF71FFCB863A86970432F
:1028D0002146FDF719FCF863E86970432146FDF7CE
:1028E00013FC386400200B4904CD531E9A410A544E
:1028F000401C0828F8D101B0F0BDC04618090020DE
:10290000E001002004000020000200209C000020C4
:10291000E4000020D601002002E008C8121F08C110
:10292000002AFAD170477047002001E001C1121F50
:10293000002AFBD170470000C1C081C1400101C322
:10294000C003800241C201C6C006800741C700051E
:10295000C1C581C4400401CCC00C800D41CD000F25
:10296000C1CF81CE400E000AC1CA81CB400B01C944
:10297000C009800841C801D8C018801941D9001B7E
:10298000C1DB81DA401A001EC1DE81DF401F01DD9C
:10299000C01D801C41DC0014C1D481D5401501D775
:1029A000C017801641D601D2C012801341D3001146
:1029B000C1D181D0401001F0C030803141F10033ED
:1029C000C1F381F240320036C1F681F7403701F59C
:1029D000C035803441F4003CC1FC81FD403D01FF25
:1029E000C03F803E41FE01FAC03A803B41FB0039C6
:1029F000C1F981F840380028C1E881E9402901EB9C
:102A0000C02B802A41EA01EEC02E802F41EF002D1D
:102A1000C1ED81EC402C01E4C024802541E5002774
:102A2000C1E781E640260022C1E281E3402301E1C3
:102A3000C021802041E001A0C060806141A100630D
:102A4000C1A381A240620066C1A681A7406701A51B
:102A5000C065806441A4006CC1AC81AD406D01AF24
:102A6000C06F806E41AE01AAC06A806B41AB006945
:102A7000C1A981A840680078C1B881B9407901BB7B
:102A8000C07B807A41BA01BEC07E807F41BF007D9D
:102A9000C1BD81BC407C01B4C074807541B5007774
:102AA000C1B781B640760072C1B281B3407301B143
:102AB000C071807041B00050C1908191405101932C
:102AC000C053805241920196C0568057419700559D
:102AD000C19581944054019CC05C805D419D005F24
:102AE000C19F819E405E005AC19A819B405B0199C3
:102AF000C059805841980188C04880494189004B9D
:102B0000C18B818A404A004EC18E818F404F018D1A
:102B1000C04D804C418C0044C18481854045018773
:102B2000C047804641860182C042804341830041C4
:102B3000C1818180404001000200040008001000B3
:102B400020001000200000000000004800000048A5
:102B50000000004800000048000000480000004855
:102B600000040048000400480000000001020304C3
:102B7000902B000800000020280000001829000801
:102B8000B82B000828000020F80C000028290008B5
:102B900000127A0064000000000000000000000045
:102BA0000000000000000000000000000000000025
:082BB000000000000700000016
:04000005080000B53A
:00000001FF
