:020000040800F2
:10000000200D0020C9000008DF150008DD150008DC
:1000100000000000000000000000000000000000E0
:10002000000000000000000000000000E3150008D0
:100030000000000000000000E1150008E5150008C0
:10004000DB00000800000000DB000008DB00000807
:10005000DB000008DB000008DB000008DB00000814
:1000600000000000DB000008DB000008DB000008E7
:10007000DB000008DB000008DB00000800000000D7
:10008000DB000008DB00000800000000DB000008C7
:10009000DB000008DB000008DB000008DB000008D4
:1000A000DB000008DB000008DB000008A11F0008DF
:1000B000DB0000080348854600F014F800480047BC
:1000C00009240008200D0020044880470448004708
:1000D000FEE7FEE7FEE7FEE7FEE7FEE7751600082F
:1000E000B5000008064C0125064E05E0E36807CC84
:1000F0002B430C3C98471034B442F7D3FFF7DEFF94
:10010000CC3D0008EC3D000870B50446002903D042
:1001100000202022012310E0002801D00020C0434D
:10012000C046C0460DE02546D5408D4205D30D465C
:100130009540641B1D46954040191546521E002DE2
:10014000F1DC214670BDD2B201E00270401C491EB4
:10015000FBD270470022F6E710B513460A46044664
:100160001946FFF7F0FF204610BD0000F0B583B040
:10017000019048684278007800900002861870422A
:100180007041584B1B785D425D41054356480488D9
:1001900001230020A6421F4600D307463D43534F8C
:1001A0003F88BE4200D803461D4311D102AD6A709C
:1001B00000982870101BC0B24D4A105C4D6003229D
:1001C0000A81012800D00220A870019801F0E6FB06
:1001D000012003B0F0BDC046F0B583B0019048687F
:1001E000437800780202D618724272413D4C24785E
:1001F0006542654115433C4A148801220027A64206
:10020000144600D33C462543384C2488A642144665
:1002100000D83C4625430CD102AC0625A57063707E
:10022000207005480270032008814C60019801F09D
:10023000B5FB012003B0F0BD20020020F0B585B071
:10024000029003914C686178207801900002461872
:1002500070427041234A1278554255410543224865
:10026000078801200023BE42024600D31A461543E8
:100270001E4A1288964200D8184605432ED1C81B44
:10028000A278022A0AD0012A11D1C0B2184B012249
:100290001A5404A841700199017014E0C0B2144AC4
:1002A0000023135404A84170019901700AE004AAC4
:1002B000517001991170C0B20D49085C012801D13B
:1002C000012200E0022204A80621C17082700422EB
:1002D00003990A814860029801F060FB012005B093
:1002E000F0BDC046A8010020AC010020AA010020FA
:1002F000B6010020F0B58BB00646A148864201D079
:10030000052000E0032000900123002427460393EA
:1003100001910A9622E0089ABA400A9E30689043FA
:1003200030601C202040069D85400798C008800052
:100330003018016AA9430162F0689043F060706868
:10034000099988437060B0689043B060019908468D
:10035000D840241DBF1C5B1C002843D05D1E0398A1
:10036000A84002460A40F2D00597099029460C257C
:1003700025400F270697AF4003200791089081433F
:10038000824808580297384004900926F6060A98D1
:10039000B0420A9E0CD08E48864207D07C488642E6
:1003A000009E059F049806D1022604E0012600E085
:1003B0000026059F0498AE40B042ACD1734809189E
:1003C000704D286890432860686890436860E868CA
:1003D0009043E860A8689043A8600868029A904338
:1003E000086098E70BB0F0BDF0B58BB00F68002F38
:1003F00000D1C3E002466248824201D0052000E0FD
:1004000003200090012400252B46019404910292C0
:100410000CE03A43089B5B4802600F683846E040B6
:10042000AD1C1B1D641C002800D1A7E0661E0198AE
:100430000996B04007400597EFD0089303231A466A
:10044000AA40D2430E46294675682E461E40771EA6
:10045000012F07920691039412D81746029A9368C7
:100460003B40049CE7688F401F439760EB06DB0F1F
:10047000099FBB40576887431F4357602C4607E0DE
:10048000032E029A2C4603D11E46049F089B1FE0B0
:10049000D068079B1840049FBB6806998B400343B4
:1004A000D360022E089B13D11C20184015460F2242
:1004B0008240099BDB089B00EB181E6A96433A6951
:1004C000824032431A622A46089B7C6803262640F3
:1004D000069DAE4010683946079F38403043106093
:1004E000A003800F039C98D0274A11680120014384
:1004F0001160116801400A910C271F400F23BB4077
:1005000003260999B1430A9E204A8E589E43029AB7
:100510001E4BC9180923DB069A4208D02C4B9A427D
:1005200006D01B488242009802D1022000E0002041
:10053000B840304308601348826804994868C30291
:1005400002D5059F3A4301E0059FBA430D4B9A60DF
:10055000DA68830201D53A4300E0BA43094BDA6016
:100560005A68830301D53A4300E0BA43054B5A6009
:100570001A68C00300D54CE7BA434BE70BB0F0BD97
:10058000000C00480004014018100240080001401F
:1005900000080048B0B50B4800680B49884200D0FD
:1005A000B0BD0125680509490A6882430A6029022D
:1005B000074C2046FFF79EFE69022046FFF79AFE91
:1005C000B0BDC04628000020005400401C1002406E
:1005D00000040048BFF34F8F044805490160BFF392
:1005E0004F8F00BF00BF00BF00BFFAE70CED00E077
:1005F0000400FA05F0B587B0EB4FF86F002845D13D
:10060000782000263E543868E84988423ED10125CA
:10061000A903E74842680A43426042680A400292DE
:100620000299690402680A43026002680A40029261
:100630000299A90402680A43026000680840029017
:1006400002980695032001900590049602200090E0
:100650000390280302900920C00602AC2146FFF750
:10066000C3FE069601980590049600980390C0205A
:100670000290D0482146FFF7B7FEFF200006CE4982
:100680000A6882430A60E806CC4908602420F867BB
:100690003E6830680125A8433060786A002855D04C
:1006A00001070CD4C10712D1810718D441071ED409
:1006B000C10624D481062AD4410630D43EE0E903A1
:1006C00072688A43796B11437160C107ECD0690489
:1006D00072688A43B96A114371608107E6D52904BB
:1006E00072688A43F96A114371604107E0D5A90431
:1006F00072688A43396B11437160C106DAD52903E8
:10070000B2688A43B96B1143B1608106D4D56903DD
:10071000B2688A43F96B1143B16041060ED52905D1
:1007200072688A433B6C1A4372608B4206D1032184
:10073000490572688A43796C11437160000605D5DA
:10074000E80471688143B86C0843706030689C4964
:100750000140B8683A690243786910430843F9696F
:10076000084330600324200372688243F868104312
:100770007060B8693A6A02430B200002B368834391
:100780001343B3608F48864209D08848864208D117
:100790008748C0698007000F8BA2135802E000232E
:1007A00000E01023EA038C48914219D1082B00D9AC
:1007B000C1E0C0467B441B795B009F4404BC6ABC1B
:1007C0002BBCBCBC460089480068794910390968CF
:1007D0004905490F864A515CC840002859D178E044
:1007E000082B00D9A7E0C0467B441B795B009F44DF
:1007F00004A265A22EA2A2A249007C4800686C490E
:10080000103909684905490F794A515CC8400028E8
:1008100054D15EE0664A1146103909680C230B403A
:10082000082B36D101948B021B0F6C4CE45C92694F
:100830006B4B1033194227D00F210A406949895C5C
:10084000FFF762FC4443204620E0104621E0584A6E
:100850001146103909680C230B40082B2ED1019446
:100860008B021B0F5D4CE45C92695D4B10331942A7
:100870001FD00F210A405B49895CFFF745FC4443C8
:10088000204618E0104619E057486043019C0028B4
:100890001FD0400079684A081018FFF735FC02465F
:1008A000103A4F498A4246D201400007400F0843A0
:1008B0000EE04D486043019C00280AD079684A0840
:1008C0001018FFF721FC01461039454A914232D2F7
:1008D000F0600194A803B1680143B160E803B16816
:1008E0008143B1603068434901403160306828433A
:1008F0003060842000243C50BC66FC663E480268A0
:10090000306800071ED56905274E3046174601F0AE
:10091000C3FA002813D0EFF3108085F310883168F4
:100920000A6880239A430A6080F310882020F067C9
:10093000019D1D4F32E00020B866F86630E0366851
:100940003A46194F3068400721D5A905164E304662
:1009500001F0A2FA00281AD0EFF3108085F3108876
:1009600009214901326813688B43136080F31088B2
:10097000EFF3108085F3108831688A68AA438A6093
:1009800080F31088802020213150019D06E0202036
:10099000F867802178503C667C66254678203C5478
:1009A000284607B0F0BDC0460C01002000380140C9
:1009B000141002400004004818E400E000E100E0E8
:1009C000F369FFFF00440040000000000400000045
:1009D000080000000200000000127A00A23D00089A
:1009E000F0FF0000B23D000800093D0000000020BB
:1009F000C23D0008FFFF00FC1C09002070B5014645
:100A00003C23144AD05C012801D1022070BD002093
:100A1000D0543F231B02CC689C430F239D028E6859
:100A2000AE432643DB024C689C43344307231B033D
:100A30000D689D43254303235B030C699C432C43B2
:100A40004B6923430124A403A343C96919431268D2
:100A5000516470BD7C000020B0B53C23C35C012B09
:100A600001D10220B0BD03463C3302245C70006813
:100A700044687025AC430C4381684460CB4CA04271
:100A800005D04A4CA04202D0C94CA04203D18024D8
:100A9000A143114381600020187001215970B0BD3D
:100AA000B0B582B0002813D001463C314A78002A04
:100AB00011D002224A7002681568BD4CA24202D0D1
:100AC000BA4B9A421BD170239D4383682B4317E096
:100AD000012002B0B0BD00220A700268B34B9A42F6
:100AE00056D0B34B9A42E4D10122D2022D4B1C685E
:100AF00014431C601B6813400193019AD9E72B46ED
:100B0000294DAA4208DCA94DAA420ED02A4DAA427C
:100B10000BD0A24209D039E0244CA24205D0244C8B
:100B2000A24202D0234CA24230D103242402A34388
:100B300004691C4380239C43836923431360C36877
:100B4000D362436893621D4BD3180A24E341072BF9
:100B500006D801249C40E1231C4201D04369136361
:100B60003E30012353611469E40702D014699C43A9
:100B700014610372037043708370C3700371437117
:100B80008371C3714B70002002B0B0BD1C46D1E729
:100B9000044A53680224234353605268224000925F
:100BA000009A86E718100240FF3F014000400140D4
:100BB00000480140004401400020004000D4FEBF36
:100BC000F0B53C22825C012A01D10220F0BD024630
:100BD0003C32022353704D4E3346773B0468A06885
:100BE0001840A0600D6800234F2D1EDC1F2D35DD41
:100BF000202D37D0302D35D0402D00D081E0206A17
:100C0000256A0126B5432562A569F026B543CE685D
:100C100036012E43A6610A25A84349680143216293
:100C2000A06847210143302067E06F2D23DD0120BC
:100C30004703BD423ED000038542184662D0702D66
:100C40005FD1A06830404D688E68C9682E430902A4
:100C500031430143A160A068772137E0002D01D026
:100C6000102D4ED1A06870218843054307202843EA
:100C7000A060184646E0502D2AD0602D41D1256A4B
:100C80001020C043266A064026620F263603A76955
:100C9000B743CE6836033E43A661A026B5434968F4
:100CA000090129432162A16867250D430540A5601C
:100CB000184627E0A56835404E688F68C9683743F5
:100CC000090239432943A1608003A168014315E06B
:100CD000206A256A0126B5432562A569F026B54339
:100CE000CE6836012E43A6610A25A8434968014310
:100CF0002162A0685721014320208143A16018464A
:100D000000E00120137001215170F0BDFF00FFFFD2
:100D100070B586B000240594049403940294019461
:100D2000F849884217D0F64988423CD10120400456
:100D300020490A6802430A600968014000910220C4
:100D400005900494039402900F20000201900098F3
:100D50000920C00624E00125680416490A680243F8
:100D60000A600A68024000920098A8040A680243D8
:100D70000A600968014000910595049403940226D5
:100D80000296C020019000980920C00601A9FFF733
:100D90002BFB0595049403940296032001900648CA
:100DA00001A9FFF721FB06B070BDC046000400405A
:100DB000002C01401410024000040048F0B583B03C
:100DC0003C23C35C012B02D1022003B0F0BD0746D7
:100DD0003C370223DA41032A39D802977A44127940
:100DE000520097440136495E0268156A146A012070
:100DF00084431462EF4C14190A26F4419D438E6813
:100E00002E43536800930B6801939569072C00D912
:100E1000E8E00346A340E1273B4200D103E10C2375
:100E20009E43CB680427BB433343029F072C00D962
:100E3000DCE0A040E124204200D1D7E00320000202
:100E4000009E86434C69886934430443CFE0012007
:100E5000E5E00268106A136A1024A343136220239A
:100E600098438B681B01034350680D689469D44E06
:100E7000B24250D01E4655E00268106A01273B027C
:100E8000146A9C4314627B0298438B681B020343E1
:100E900050680C680194D569C94EB24256D01E46BE
:100EA0005DE00268156A01263003136A834313620A
:100EB000C04813180A20C34150688C680F68019716
:100EC000D769072B00D9B0E0009434469C40E12359
:100ED0001C4200D1ABE0B30398434B699B01034331
:100EE000009C10461C30536073231B029F43019BE0
:100EF0001B023B43D3614B68136473039D4323037D
:100F00002B431362F302D4691C43D461B302D46946
:100F10009C43D4614CE0C026B343CE6836014027E1
:100F2000BE431E43A34BD3180A27FB41072B29D8E6
:100F300001279F40E1231F4224D003239B029843B3
:100F40004B698F691F43BB0003431CE00326B602B5
:100F5000B343384CFF3CCE68360226401E43954BC7
:100F6000D3180A24E341072B26D89F40E1231F42D0
:100F700022D003231B0398434B698C691C43230134
:100F800003431AE0034610461830536073231B02D4
:100F90009C432B02234393614B68936316620123A6
:100FA000DC029569254395619B0294699C43946199
:100FB00009690902029F2EE00346029F10461C3079
:100FC000536073239D43019B1D43D5614B68D363DD
:100FD0001662D36908241C43D461D3690424A34353
:100FE000D36117E03346072C00D822E7009C104657
:100FF000183054607324A543019C254395614C68C7
:1010000054631362936908241C4394619369042414
:10101000A3439361096902680A430260002000212A
:10102000397003B0F0BD3346FFE6034659E7034687
:1010300056E7C046FFFBFFFFB0B5002815D00146BC
:101040003C314A78002A01D100220A7002224A70FB
:10105000026815685A4CA24202D0574B9A4206D1F8
:1010600070239D4383682B4302E00120B0BD2B46D3
:10107000254DAA4208DC504DAA420ED0254DAA4269
:101080000BD0A24209D038E04C4CA24205D01F4CF4
:10109000A24202D01E4CA2422FD103242402A34319
:1010A00004691C4380239C43836923431360C36802
:1010B000D362436893623F4BD3180A24E341072B62
:1010C00006D801249C40E1231C4201D043691363EC
:1010D0003E30012353611469E40702D014699C4334
:1010E00014610372037043708370C37003714371A2
:1010F0008371C3714B700020B0BD1C46D2E7C0465F
:10110000002C014000040040FF3F01400048014026
:10111000004401400020004002463E32002905D034
:10112000082909D0042909D1531C08E01378012BA0
:101130003ED1022313700FE0931C00E0D31C1B78F8
:10114000012B35D10223082903D0042903D1537080
:1011500002E0937000E0D3701F2211400122134679
:101160008B400068016A99430162016A1943016278
:10117000104941180A23D941072908D813468B4042
:10118000E1210B4203D0D103436C0B4343640A4972
:10119000884205D00949884202D00949884204D1D1
:1011A000816807230B40062B02D0016811430160C0
:1011B0007047C04600D4FEBF00040040004001401C
:1011C000002C0140F0B581B08A48056801222A62EE
:1011D0000221296204210091296210232B62082137
:1011E0002962EFF3108582F31088092676010768DB
:1011F0003C68B4433C6085F31088EFF3108482F3BD
:1012000010880568AE689643AE6084F31088046E5B
:10121000012C09D1EFF3108482F3108805682E6841
:101220009E432E6084F310880468A468640630D559
:10123000EFF3108482F310880568AE684027BE4340
:10124000AE6084F31088456F002D22D02E462036E4
:1012500000276F637478022C11D12B681C680097EB
:101260000E27BC431C601C6894431C60EB6B2C6C09
:101270001546A5405D60009B3370727009E03770C1
:10128000009AAA63426F926B202A02D184214350B4
:101290000CE05A220023835202680F2414629469DE
:1012A0000C439461802120224250036600F028F80C
:1012B00001B0F0BD10B54F4800680D49884200D01C
:1012C00010BD0124A0030B490A6882430A6009206B
:1012D000C0062103FFF70EF80748C021FFF70AF800
:1012E000E00606490860BFF34F8FBFF36F8F10BD54
:1012F00000380140181002400004004880E100E07E
:10130000F0B581B080233B48C15820290AD18568B7
:1013100001210A03954207D10469002C04D1A74C8E
:10132000E40701D001B0F0BD0024046606687668C9
:1013300036020DD5EFF31085009581F310888E06E7
:1013400007683D6835433D60009D85F310888568DA
:101350005A26815358268153984E46658466002D3F
:1013600007D0954225460AD10569002D06D1224DA8
:1013700005E00569002D01D07F2500E0FF258426CA
:1013800084515C2405532224C450EFF3108381F36D
:1013900010880468A5680D43A56083F3108803696D
:1013A0008468944204D1002B14D0144A826603E06E
:1013B000124A8266002B0FD0EFF3108281F310885F
:1013C00009214901006803680B43036082F3108818
:1013D00001B0F0BD0A4A8266EFF3108281F31088F3
:1013E0000068016820230B43036082F3108801B07A
:1013F000F0BDC0460C010020FF010000D71D000811
:10140000171D0008F0B581B0E94CA17A6B4800784F
:10141000A289322A15D3002901D00021A17200210E
:10142000A181012809D169480021215466486A4AEE
:101430002252634821520320A072FFF761FF01B0DE
:10144000F0BD0025A5810629F7D8C0467944097961
:1014500049008F4403041E3D536C7500E1E7584971
:10146000625A521C6252584BE65AF7B247407F000C
:101470005749C95B360A4E40E652218A09020818CC
:10148000208290B20228D8D14D4825520420A07263
:10149000D3E74B49625A531C63524A4EA25B120275
:1014A0001218A25398B20228C7D14748235A92B2C1
:1014B00093427DD1228A002A7CD025526552052094
:1014C000A07244488242B8D3404801212154B4E775
:1014D0003B49625A531C63523B4BE65AF7B24740B2
:1014E0007F003B49C95B360A4E40E652A073002A92
:1014F000A3D1334825520120A0729EE78321C90061
:1015000060542F49625A531C63522F4BE65AF7B26C
:10151000474078002E4F385A360A4640E652002A95
:101520008BD12848255265520220A07285E72749B1
:10153000615C00291ED02249605A401C60522BE099
:101540001F49625A521C62521E49635A1B021818E4
:10155000605291B2022900D06FE71C49615C0029FA
:1015600006D11949615A80B2814201D100F048F98F
:10157000A57262E71249625A531C6352124BE65A33
:10158000F7B247407F00124BDB5B360A5E400E4BE2
:10159000E652A2189074605A218A80B2884200D024
:1015A0004BE708482552064825520620A07244E71A
:1015B000A57242E700F024F9A5723EE7A9010020D8
:1015C00012040000160400001404000019040000B6
:1015D000A23B000801040000C1C00000FEE7FEE7D6
:1015E00070477047F0B585B01F480168491C01601D
:1015F0001E480078012834D1E44CA089312801D854
:10160000401CA081E248205C00282AD018496618B6
:10161000002704E014367F1CC1B28F4221D2326809
:10162000002AF7D0B1880029F4D0491EB1800904FE
:10163000F0D1B568F3682946194308D0049303959F
:1016400000200190694620469047D148205C002147
:101650003160C1B2491E8F42DCD1401ECC4960547A
:10166000D8E705B0F0BDC0461C0900209401002059
:10167000AC0400007047000070B54C4BC34AD4580E
:10168000002C4ED04B4BD458002C4DD04A4BD45844
:10169000002C4CD0494BD458002C4BD0484BD4583C
:1016A000002C4AD0474BD458002C49D0464BD45834
:1016B000002C48D0454BD458002C47D0444BD4582C
:1016C000002C46D0434BD458002C45D0424BD45824
:1016D000002C44D0414BD458002C43D0404BD4581C
:1016E000002C42D03F4BD458002C41D03E4BD45814
:1016F000002C40D03D4BD458002C3FD03C4BD4580C
:10170000002C3ED03B4BD458002C3DD03A4BD45803
:10171000002C3CD0394BD458002C46D1D31813247C
:1017200037E0D318002434E0D318012431E0D31873
:1017300002242EE0D31803242BE0D318042428E03D
:10174000D318052425E0D318062422E0D318072453
:101750001FE0D31808241CE0D318092419E0D3187B
:101760000A2416E0D3180B2413E0D3180C2410E03D
:10177000D3180D240DE0D3180E240AE0D3180F243B
:1017800007E0D318102404E0D318112401E0D31883
:101790001224E5005519C726F600A85519607D48A2
:1017A000115CA14201D8611C115470BD3C060000BF
:1017B00028020020440600004C06000054060000E9
:1017C0005C060000640600006C0600007406000061
:1017D0007C060000840600008C06000094060000D1
:1017E0009C060000A4060000AC060000B406000041
:1017F000BC060000C4060000CC060000D4060000B1
:10180000F0B58BB000220692604B987B06A9087059
:101810000892188A08818320C000185C88700A9298
:10182000009209921846123007905948185C0290AD
:10183000002840D09521CD002846103005902C4638
:101840000C342A460A322946083104912E1D012102
:1018500011E0059F14361435143414370597411CD4
:10186000039A14321F4603460498143004900298D9
:1018700083423B461FD2039208469A59002AE8D079
:10188000595D06AB1B789942404B059FE2D1019010
:1018900018590990D8590A9006A9184690473B4B09
:1018A000099919510A99D951002852D13848185C20
:1018B00002900198CEE700980A900990354C185D87
:1018C000002823D0C721C9005D18012105E0385D3B
:1018D0003B460835711C864218D20E466A68002ABB
:1018E000F7D006A989782B788B42284BF1D106A92D
:1018F00018461F4690470028E9D0032804D10098D5
:101900006860385DB04220D00BB0F0BD224C185D4D
:101910000028F9D0DB21CD00012606E0385D3B46EA
:101920002D1D711C86420E46EED25A59002AF7D060
:1019300006A918461F4690470028EFD00328E3D198
:1019400000987851385DB042DED1401E38550BB05A
:10195000F0BD022813D00328D6D10098D8511851D1
:1019600098590028D0D0009898510948185C0199DE
:101970008842C9D1401E064958540BB0F0BD0398A7
:10198000185A049958520BB0F0BDC04628020020E6
:10199000EC060000ED060000EE060000F0B589B090
:1019A00001264E707C4BC518AB7A002B01D009B0D4
:1019B000F0BD0A46774BC11814784C700E70507AFF
:1019C0000002070A8F701389CB7090780790087116
:1019D0000896C1266640F4B26400704E345BE0B2F3
:1019E0007840C02747407800305A240A44405C4081
:1019F000E3B25B00F35ADCB2000A6040079C60402F
:101A00004000305A040A4C710C461B0A43408B714B
:101A10000898A8720721296000272F8113896B601D
:101A2000002B00D1AEE0506800900028BFD0072105
:101A3000019403E0E719002B00D18CE08020441AC8
:101A40009C4200D31C46A0B20028059473D0039397
:101A500006900098C2190198411803232340069864
:101A6000401E03280497029301D2002037E0069815
:101A7000C01A079000200892145C0C542F897C40F7
:101A8000E4B26400345B3F0A67402F810F181418DA
:101A90000A46314666787E702B895E40F6B2760043
:101AA0008E5B1B0A73402B81A378BB702E89734019
:101AB000DBB25B00CB5A360A5E402E810E461146E1
:101AC000089AE378FB702C896340DBB25B00F35A21
:101AD000240A5C402C81001D079B8342CCD1029FCD
:101AE000002F23D0135C0B542C896340DBB25B00C6
:101AF000F35A240A5C402C81012F17D0431CD45C7C
:101B0000CC542B895C40E4B26400345B1B0A634014
:101B10002B81022F0AD0801C125C0A542889424073
:101B2000D1B24900715A000A484028812968049FAF
:101B3000039B059C0698091829601B1B802900D06F
:101B400078E7802101981C4600F02AF82346059C7E
:101B5000002129606EE76868002812D008467F38A7
:101B60000128019C04D8204600F01AF800212960C1
:101B7000687A60546018297A41702868811C29604D
:101B800000E0019C204600F00BF80020A87209B08C
:101B9000F0BDC0461A0400009C040000A23B0008EF
:101BA000F0B581B00D460446514800685149FEF732
:101BB000ABFA7D210901414300910098411E00913B
:101BC000002801D000BFF8E74B48C16F202900D0A2
:101BD0008AE0002C00D187E0290400D184E00121B3
:101BE000090382688A4213D10269E10701D0002A01
:101BF0007AD0842100234350502145522121C167CE
:101C0000E649096852268553002A0CD125460CE086
:101C1000842100224250502145522121C167DF49D1
:101C2000096852228552002523465224065B026829
:101C3000002E33D0D94ED7693F061DD437687F1A9E
:101C40002D2F4FD81768D7693F0615D437687F1AEC
:101C50002D2F47D81768D7693F060DD437687F1AEC
:101C60002D2F3FD81768D7693F0605D437687F1AEC
:101C70002D2F37D81768DEE7002B03D01F78178584
:101C80005B1C05E02B881D4F3B401385AD1C0023DA
:101C9000075B7F1E0753075B002FCCD1D3695B0620
:101CA00020D4BE4B1C68641A2D2C1BD81468D46930
:101CB000640617D41C68641A2D2C13D81468D469D0
:101CC00064060FD41C68641A2D2C0BD81468D469D0
:101CD000640607D41C68641A2D2C03D81468D469D0
:101CE0006406DFD52021C167FFF70AFB01B0F0BD14
:101CF00000000020002D31010C010020FF01000038
:101D000080B5406A0146523100220A815221425276
:101D1000FFF758FA80BD70B5802142580168222A29
:101D20000FD102465A325388898C1940436D19806D
:101D30001188491E1180991C41651188002905D020
:101D400070BD8869082202438A6170BD02468032F4
:101D5000EFF31083012181F31088092464010568E1
:101D60002E68A6432E6083F31088EFF3108381F36F
:101D700010880468A5688D43A56083F3108820232C
:101D8000136000224266826603685B681B020AD504
:101D9000EFF3108381F310888C0605682E68A64344
:101DA0002E6083F31088036E012B11D10266EFF3CE
:101DB000108281F3108803681C6810218C431C601A
:101DC00082F310880068C269D206B9D5016270BD7D
:101DD000FFF718FB70BD70B5802142580168222AB8
:101DE00010D102465A325388898C1940436D1970BC
:101DF0001188491E1180416D491C416511880029D7
:101E000005D070BD8869082202438A6170BD024610
:101E10008032EFF31083012181F3108809246401DB
:101E200005682E68A6432E6083F31088EFF31083B5
:101E300081F310880468A5688D43A56083F310883A
:101E40002023136000224266826603685B681B02DF
:101E50000AD5EFF3108381F310888C0605682E688D
:101E6000A6432E6083F31088036E012B11D1026606
:101E7000EFF3108281F3108803681C6810218C43F3
:101E80001C6082F310880068C269D206B9D501626D
:101E900070BDFFF7B7FA70BDF0B582B00568EB69A9
:101EA0000B4000268B4202D1304602B0F0BD0190BB
:101EB000783000900120C702384C03E0EB690B40FA
:101EC0008B42F1D023689B1A5B0E32D12B685B07E3
:101ED000F4D5EB691B072FD4EB693B42EED02F62A0
:101EE000EFF31080012282F3108809214901019E3D
:101EF00033681C688C431C6080F31088EFF31080FB
:101F000082F3108831688B6893438B6080F310886C
:101F1000336E03202021012B36D1EFF3108382F39F
:101F20001088326814681025AC43146083F310885D
:101F30002AE0032002B0F0BD08212962EFF31082ED
:101F400080F3108809235B01019E346825689D4356
:101F5000256082F31088EFF3108280F310883368D5
:101F60009C6884439C6082F31088326E012A0BD1F6
:101F7000EFF31082012080F3108833681C6810256D
:101F8000AC431C6082F31088009B20229A600022E0
:101F90003266B2661A70D96002B0F0BD1C0900202A
:101FA000F0B587B0C5480668F36937682021384620
:101FB00003910F407C427C4101210691CA021546E3
:101FC0002F351D40203D691E8D4125430496B5687F
:101FD0004AD011460F3105930B42034606D0B8494B
:101FE000194001263540691800D082E010261946B4
:101FF00031404D424D41059A114631404F424F41CB
:10200000E449096E0129069C00D13C46002C069C3F
:10201000049800D12C46002C2FD080211940484232
:1020200048411106069C00D50446002C00D1E6E08C
:10203000402003405C425C41510600D5069406995D
:102040000029D44C00D036E1EFF31081012282F355
:102050001088226813688343136081F3108800207E
:10206000E0660398E06726E1CA48816E002900D146
:1020700021E1C848884707B0F0BD06628068400685
:1020800000D5C1E05A22C34DA85A5821695AAA5A0C
:10209000002A00D10FE1814200D10CE1EFF3108161
:1020A000012080F31088092252012B681C68944398
:1020B0001C6081F31088EFF3108180F310882A6888
:1020C00093688343936081F310888021039A6A5058
:1020D0000021A9662966EFF3108180F31088286833
:1020E0000268B243026081F310880220686607B07C
:1020F000F0BD0192310219404C424C410599C9078B
:10210000069800D0204600280296049807D106625F
:102110008421A04A5458029E34435450029E6C427B
:102120006C4105998907069900D5214600290AD1F5
:10213000022101628421974A545800940424009E8D
:1021400034435450029E6C426C41059949070699EC
:1021500000D52146002908D10421016284218D4E39
:102160007258022414437450029E3D436C426C41E9
:1021700005990907069D00D52546002D07D10821A0
:1021800001628424834E35590D433551029EB106B8
:102190000B405C425C410599019A1142069B00D0BC
:1021A0002346002B7B4C06D10199016284216358A0
:1021B000039D2B43635084256159002900D17AE0A7
:1021C0000399059A0A407B427B41002A00D006937E
:1021D0000699002905D1A16E002902D02046884722
:1021E0002068615928220A408168402001408918EE
:1021F00068D1FEF7E7FF0020605107B0F0BD6548E9
:10220000C16E002957D034E7624F796F0868426881
:1022100090B200284FD05823FB5A98424BD25A20F4
:102220003A528969202900D1A9E0EFF310820121F7
:1022300081F31088594B20333C6825681D40256088
:1022400082F31088EFF3108281F310883B689C685A
:102250008C439C6082F31088EFF3108281F3108826
:102260003B689C684025AC439C6082F310888022C8
:10227000039BBB5000223A66EFF3108381F3108872
:102280003C682568B543256083F310887D6F2B4635
:1022900020335C78022C6ED12C6826680E27BE4352
:1022A000266026688E432660EC6B2D6C0E46AE4091
:1022B0006660597061E007B0F0BDC0460C010020B7
:1022C00020010004EFF3108186F3108809225201E7
:1022D00023681C6894431C602E4C81F31088EFF334
:1022E000108186F3108822689368B343936081F36A
:1022F0001088216E01290BD1EFF3108186F310882D
:10230000226813681024A343224C136081F31088C1
:102310008021039A625000212166A166226892689A
:10232000520624D5EFF3108286F3108823682546E1
:102330009C6884439C6082F31088686F002816D0E4
:1023400002462032144B43635378022B1CD103689E
:102350001C680E25AC431C601C68B4431C60C36B36
:10236000046C3546A5405D60117056700EE0FEF7B6
:1023700029FF07B0F0BD0421A9631A70054F02219F
:102380007966385A07B0F0BD04218163FFF7B8FCC5
:1023900007B0F0BD0C010020011D0008DFFEFFFFAB
:1023A000154900200870154A13685B0501D4012007
:1023B000087013681B0501D4801C08701368DB04C7
:1023C00001D4001D087013689B0401D40830087004
:1023D00013685B0401D4103008701268120402D430
:1023E0002030087001E0002805D0C00004490880B2
:1023F000C01F044908807047A8010020100400484D
:10240000AA010020AC01002000B5A3B0E84A106882
:1024100010210D91084310607D20C100E54800683F
:102420000C91FDF771FE401E010EE34C10D1E34903
:102430004860E3480268224003239B07D2180260E9
:1024400000228A6007220A6001682140C9180160E1
:10245000DC4F391F08680122104308600E9108689C
:102460001040109010980F9210073968014339609E
:1024700039680140109110983C46183C20680007CC
:10248000800F09D020680C210140082900D085E088
:102490002068C00300D581E038461C380068384603
:1024A0001C38016880220B9211437822914301600D
:1024B000B9680F9A1143B960C34E3168BA68920780
:1024C0001CD43268521A022A00D9E6E0BA68920790
:1024D00014D43268521A022A00D9DEE0BA68920790
:1024E0000CD43268521A022A00D9D6E0BA68920790
:1024F00004D43268521A022AE0D9CEE022680C21B4
:102500000A40082A73D122683B69D50300D5C4E08C
:102510000F252B4000D0C0E0AB041A400523DB049C
:102520009A4200D0B9E0A24A1268D20707D1A04D62
:102530002A68012313432B602A68D2070DD0072293
:102540000A9212022368134323602368F025AB43E9
:1025500023600068800100D5D3E0EFF3108072B6ED
:102560009A4800689A49884205D138460838016877
:10257000402291430160FEF70DF8964801689648A5
:10258000814200D1EAE0954A914200D0EAE001217F
:10259000C9020E9B1A688A431A60E3E038461C3869
:1025A00001680F9A1143016087490A6803689B0715
:1025B00000D574E70B689B1A022B6ED803689B0743
:1025C00000D56CE70B689B1A022B66D803689B0743
:1025D00000D564E70B689B1A022B5ED803689B0743
:1025E00000D55CE70B689B1A022BDFD955E00F9DE5
:1025F0002A060368934303606A0633680568154238
:1026000019D03568ED1A022D47D80568154212D049
:102610003568ED1A022D40D8056815420BD0356893
:10262000ED1A022D39D80568154204D03568ED1A27
:10263000022DE3D931E03B690F25AB433B613D23DC
:102640001B0425689D430523DB04EB1823605A4BCC
:102650005B1C05681D43056033680568154200D0A2
:1026600061E73568ED1A022D17D80568154200D0CC
:1026700059E73568ED1A022D0FD80568154200D0CC
:1026800051E73568ED1A022D07D80568154200D0CC
:1026900049E73568ED1A022DDFD9EFF3108072B6E5
:1026A0004A4800684A49884205D1384608380168D6
:1026B000402291430160FDF76DFF4648016846489E
:1026C000814209D0454A91420AD10F99C9020E9B15
:1026D0001A688A431A6003E039680222914339601C
:1026E0003F490968814246D03C48814247D10F9812
:1026F000C0020E9A116881431160FEF7DBFDFDF701
:1027000069FF20680223099318430F9B98432060B8
:102710003068344B25680D40082D34D035682D1AAB
:102720009D4200D919E725680D40082D2BD035684A
:102730002D1A9D4200D910E725680D40082D22D0A2
:1027400035682D1A9D4200D907E725680D40082DF0
:1027500019D035682D1A9D42DCD9FEE6396802226F
:10276000914339601E490968814204D01B48814267
:1027700005D10120BCE73868022188433860FEF7A4
:1027800099FDFDF727FF0A48006820689043206004
:10279000226811401448082908D19102090F134BEF
:1027A0005D5C3969D20325D4114829E0054628E04B
:1027B0000020024000000020FFFFFF0010E000E0CA
:1027C00020ED00E01C1002401C0900200C0000203D
:1027D000003002407C00002000040040002C01403A
:1027E000C40000208813000000127A00A23D0008F7
:1027F00000093D000F221140F94A515CFDF784FCAD
:10280000454320680006000FF6A1085CC540F94862
:10281000056028460C99FDF777FC401EF64CA04257
:1028200010D8F6494860F6480268224003239B0707
:10283000D218026000228A600A9A0A600168214068
:10284000C918016078690321069188437861786925
:102850000D9988437861002414940F9948040B461D
:102860003A46083A11680143116011680140189115
:102870001898990410680843106008921068059130
:10288000084018901898DF493F200860DE4A30253C
:10289000079595621394129411931D461090084663
:1028A000283810A90C910490FDF79EFD1295119403
:1028B000D6481090D4480C99FDF796FD13941294C5
:1028C000119507981090D0480C99FDF78DFDD04DCB
:1028D0000F98A861EC602C612C71CE4B2B60687D49
:1028E00000280AD100202875089A10684021084362
:1028F0001060106808401090109809986875E043BF
:1029000018619868602101918843986098680B99D4
:10291000884398600F9B6B75BF4DC049C04A2A60C1
:102920006960AC60EB602C616C61AC61EC612C6245
:1029300041200C90285C0028104624D14020002122
:102940002954089A1068059B1843106010681840B5
:10295000189006981390129112201190B148E73800
:10296000109018980124149410A9A748FDF73CFD75
:102970006005396801433960396801401891189839
:1029800013CD2B680C3D0B9324230C9A0593AB5469
:102990000B9B05680F9A954305600F22029215065E
:1029A000A94301618568A0490D408560012B04D1D0
:1029B0000123DB031C4384600BE02125AD022C4383
:1029C0008460022B05D10123DB0244681C43446070
:1029D00003E04368954C234043608F4D4368944C1B
:1029E0001C434460C3680B40C36029696B690B4397
:1029F000A96909021943C160E9692B6A0B430360A5
:102A0000016801221143016000246C6420230C99A9
:102A10000F936B542C6342230694EC54402307938A
:102A2000EB5C5B1E5C425C416B5C203B5D1EAB4122
:102A30002343012B0B922FD1079AEFF3108072B62C
:102A4000734800687349884203D108990868904325
:102A5000086071480068724988420B9D0CD1680576
:102A60003968814339602902674C2046FDF742FCF2
:102A700069022046FDF73EFC6E4801686E488142BF
:102A800000D1E5E06D4A914200D0E5E00E9A116870
:102A9000664B19401160DFE05F4C059B635403688F
:102AA00093430360150303680395AB430360036816
:102AB00003600368134303600F9B6354069B079DE9
:102AC0006355635C202B144652D1534B059A5A54DC
:102AD0000268A2430260029A1202036893430360F1
:102AE0000268224302600F984B4A50540698505592
:102AF000534C544820605448206004206060039880
:102B0000401EA0603268E3685B0762D033689B1A9E
:102B1000282BF8D3E3685B07F5D0EFF3108072B68B
:102B20003B4800683B49884204D108990868079AE5
:102B30009043086038480068394988420B9D0CD1A1
:102B4000680539688143396029022F4C2046FDF71A
:102B5000D1FB69022046FDF7CDFB364801683648B7
:102B60008142039C00D175E2344A91422BD0D0E1DE
:102B7000039EEFF3108072B625480068254988420D
:102B800003D108990868A8430860234800682449CD
:102B9000884225460CD1680539688143396029028D
:102BA000194C2046FDF7A6FB69022046FDF7A2FB63
:102BB000204801682048814200D1A5E11F4A914286
:102BC000344600D0A5E10E9A1168184B19401160E7
:102BD0009FE1226982425DD11C4820605BE0C046D3
:102BE000B23D0008000000000000000001020304E4
:102BF0000607080900000020FFFFFF0010E000E0CA
:102C000020ED00E028000048000400480CFC000013
:102C10000C00002000300240280000200A021000B2
:102C200000540040E7030000FF7FFFFFFFF7FFFFB6
:102C3000008000027C00002000040040002C0140C5
:102C400000300040CCCC000055550000AAAA00007E
:102C50003968099A91433960F7490968814208D077
:102C6000F648814209D10E990868F54A104008607B
:102C700003E03868099988433860F2480068F249EF
:102C8000884200D0C1E1A8030E9A11688143116007
:102C90002903ACE12061069BEC4DED499622F648F4
:102CA00028600C926A60AB60E9602B616B61AB617C
:102CB00022932193209317931693159314931393B0
:102CC0001293119310932846FDF7EAFE002800D0D6
:102CD00016E103981F90EC4D1FA92846FDF770FFE1
:102CE000002800D033E1E84D2846FEF7A5F900287A
:102CF00000D08CE1E448002529462A46FDF7ACFEC9
:102D0000002800D0ABE11995019818901A951B95F1
:102D10001C951D951E95DC4818A92A46FEF74EF80D
:102D2000002800D0CEE1D84818A90422FEF746F8C2
:102D3000002800D0F9E1D44818A90822FEF73EF88F
:102D4000002800D0F5E1D04818A90C22FEF736F88B
:102D5000002800D0F1E11495139512951195109566
:102D600017950B984003159010A8FDF747FE002813
:102D700000D0E6E1C4482946FEF7CEF90421C24856
:102D8000FEF7CAF90821C048FEF7C6F90C21BE4873
:102D9000FEF7C2F9BC480068FDF7BAFFB5498D617E
:102DA000BB4808600C9848608D60B848C8600D61E9
:102DB0001B951A95199516951595149513950D460D
:102DC0000846FDF76DFE002800D0E4E10398189056
:102DD000A84D18A92846FDF7F3FE002800D0DEE133
:102DE000A44D2846FEF728F9002800D0DBE1A14DCC
:102DF0000021284605910A46FDF72EFE002800D046
:102E0000D5E1059A14921292119201981090994D61
:102E100010A92846FDF7D2FF002800D0CBE1954D40
:102E200010A904222846FDF7C9FF002800D0C6E1FA
:102E3000904D10A908222846FDF7C0FF002800D0B9
:102E4000C1E18C4810A90C220C92FDF7B7FF0028B5
:102E500000D0E7E18748059D2946FEF75DF904218A
:102E600084480491FEF758F9082182480691FEF73C
:102E700053F980480C99FEF74FF97E480068FDF73A
:102E800047FF7F48E12149027E4A02604160856038
:102E9000C56005610C9941618561C5610562456246
:102EA000FDF7A8FB002800D0C0E17A4D2878002863
:102EB00013D179480830DD21C900FDF74BF90B9893
:102EC000287001207549FEF7D7FB02207449FEF7F0
:102ED000D3FB03207349FEF7CFFBFEF711FA00F096
:102EE00073FD00F071FD00F06FFDFFF759FA6E48B9
:102EF0000078002800D1BDE1EFF3108072B698E1B0
:102F0000EFF3108072B625E03968099A9143396071
:102F1000344658490968814208D05748814209D14E
:102F20000E990868554A1040086003E0386809990E
:102F300088433860524800685249884265D1A803E6
:102F40000E9A1168814311600498214650E0EFF316
:102F5000108072B6554800685549884204D10899D6
:102F60000868079A904308605248006852498842AE
:102F70000DD10B9E700539688143396031024F4C89
:102F80002046FDF7B7F971022046FDF7B3F929682D
:102F90003F48814209D0384CA1420B9D0BD10E9A7B
:102FA0001168364B1940116005E03968099A914360
:102FB0003960314C0B9D2F490968814208D0A142EC
:102FC00003990AD10E9B18682C4A1040186004E03F
:102FD0003868099988433860039929480068294A64
:102FE000904212D1A8030E9A136883431360049889
:102FF000FDF780F9C0213148FDF77CF9E80630493A
:103000000860BFF34F8FBFF36F8FFDF7E3FAEFF365
:10301000108072B6254800682549884204D1089975
:103020000868079A90430860FDF7B4FA29681848C1
:10303000814218D0104C5AE0C4000020002C0140FE
:10304000FFF7FFFF0C010020003801407C0000204A
:10305000E70300003968099A9143396059E7EFF3B3
:10306000108072B631E03968099A91433960024C98
:1030700049E0C046C4000020002C0140FFF7FFFFDC
:103080000C010020003801407C000020E703000014
:103090000004004094010020280200206D01000877
:1030A0003D020008D9010008200200200C00002089
:1030B0000030024028000020005400400004004876
:1030C00080E100E0EFF3108072B6B2480068B249C8
:1030D000884204D108990868079A90430860FDF770
:1030E00059FAAE480168AE488142AE4C07D0A142C1
:1030F00009D10E9A1168AC4B1940116003E0396890
:10310000099A91433960A9490968814200D185E053
:10311000A14201D0FFF733FB0E990868A24A104084
:103120000860FEF7C7F8FDF755FAEFF3108072B6A6
:103130000AE0EFF3108072B606E0EFF3108072B68B
:1031400002E0EFF3108072B692480068924988421C
:1031500004D108990868079A90430860FDF71AFAA5
:103160008E4801688E48814208D08E4A914209D12A
:103170000E9A11688C4B1940116003E03968099A66
:103180009143396089490968814247D08548814225
:10319000C2D0FFF7F4FAEFF3108072B616E0EFF347
:1031A000108072B612E0EFF3108072B60EE0EFF30B
:1031B000108072B60AE0EFF3108072B606E0EFF30B
:1031C000108072B602E0EFF3108072B671480068AA
:1031D0007149884204D108990868079A90430860A9
:1031E000FDF7D8F96D4800686D49884208D06D49EF
:1031F000884209D10E9908686B4A1040086003E0C4
:10320000386809998843386028686549884205D03C
:103210006449884201D0FFF7B2FA7DE7386809991E
:10322000FFF7ABFAEFF3108072B602E0EFF3108015
:1032300072B6584800685849884204D1089908680D
:10324000079A90430860FDF7A5F95448006854496F
:10325000884208D05349884209D10E990868524AD9
:103260001040086003E038680999884338604F4887
:103270000068CAE70B984002039006E04C482060C3
:103280004C480078002800D036E632684A48016988
:1032900005694A480078490709D4002800D1CCE1E3
:1032A00047480078002861D0464800685EE0002862
:1032B0005CD00C9205984149087030683168091A51
:1032C000C8290BD83168091AC82907D83168091AE2
:1032D000C82903D83168091AC929EFD33A480178B7
:1032E0003A4A104610380029114600D001460B9A80
:1032F0000A60354949780029344900D00146099AC5
:103300000A60314989780029304900D00146049A81
:103310000A602D49C97800292C4900D00146069A37
:103320000A60294909790029284900D001460D9AE7
:103330000A60254949790029244900D001460F989F
:1033400008602148827928201821002A024600D0EE
:103350000A4602910D9B18498B501B49CA79002AD5
:1033600000D0029814490F9A0A500C9A069805400A
:10337000174800781749097800292FD0002D2DD142
:1033800000280B9B104D00D1CEE1FB4810181249CC
:1033900008603EE00C000020003002407C0000206D
:1033A00000040040002C0140FFF7FFFFC400002094
:1033B000AAAA000020020020000400480900002002
:1033C0000A00002098010020B601002028000048D3
:1033D00008000020A0010020A4010020691E8D41EA
:1033E0000540012D0B9BE64D13D10598EA49087065
:1033F00030683168091AC8290BD83168091AC829F8
:1034000007D83168091AC82903D83168091AC929A7
:10341000EFD33268DE4801680C928A4245D90A9897
:10342000DA4908700598D7490870D74908702A7892
:10343000CE4801461039002A024600D00A461360E1
:103440006A78002AC94A00D00A46099B1360AA7804
:10345000002AC64A00D00A4604981060EA78002A7A
:10346000C24A00D00A46069810602A79002ABF4A4C
:1034700000D00A460D9B13606A79002ABB4A00D02F
:103480000A460F981060AB7928211822002B0B46B2
:1034900000D013460D9DB648C550B94DEB79002BB1
:1034A00000D01146B24A0F985050B84801786D5C70
:1034B00003995831C823012D1A4600D00A46012D20
:1034C00000D01946B0480378002BAD4D00D00A4615
:1034D000B24801680C9B591A914218D3AB48017845
:1034E00002785200AEA0825A8900B1A041584B69BF
:1034F00015469D4313401A045219A14D8A61A248F2
:1035000001784A424A410270A4480C990160297826
:10351000AF480078814207D0AD4801703068AD4AAD
:103520001060002000F066F96978AB4800788142AD
:1035300007D0A94801703068A64A1060012000F049
:1035400059F9A978A5480078814207D0A3480170AD
:103550003068A04A1060022000F04CF9E978A048D9
:103560000078814207D09E4801703068994A106007
:10357000032000F03FF929799A480078814207D06A
:10358000984801703068934A1060042000F032F9C6
:10359000697995480078814207D093480170306876
:1035A0008C4A1060052000F025F9A9798F48007831
:1035B000814207D08D4801703068864A106006202D
:1035C00000F018F9E9798A480078814207D08848E4
:1035D000017030687F4A1060072000F00BF97D48C9
:1035E0000068002800D149E63168081A614988421C
:1035F00000D843E6059877490860297800F0FAF882
:103600006978012000F0F6F8A978022000F0F2F8BD
:10361000E978032000F0EEF82979042000F0EAF8B8
:103620006979052000F0E6F8A979062000F0E2F8B3
:10363000E979072000F0DEF820E60B985149087080
:10364000514908704D49087050490878401C08706D
:10365000C0B2082802D305984C4908704648101893
:103660004B4908604B480C920260454801783F4A3C
:10367000104610380029114600D001460B9A0A6006
:103680003F4949780029394900D00146099A0A6022
:103690003B4989780029354900D00146049A0A60DF
:1036A0003749C9780029314900D00146069A0A6095
:1036B0003349097900292D4900D001460D9A0A6045
:1036C0002F4949790029294900D001460F980860FF
:1036D0002B48827928201821002A024600D00A4669
:1036E00002910D9B22498B502549CA79002A00D0AE
:1036F00002981F490F9A0A50FEF752FE30680C9A42
:103700003168091AC82900D930E63168091AC82970
:1037100000D92BE63168091AC82900D926E6316894
:10372000091AC929ECD321E61A4802601748007823
:10373000285C4142414115480078295416480370DD
:1037400030683168091AC82900D91EE63168091A9B
:10375000C82900D919E63168091AC82900D914E620
:103760003168091AC929ECD30FE6C0462800004881
:1037700000040048E70300001027000009000020B3
:10378000B6010020A001002018090020040000203C
:10379000A401002098010020080000209C010020C6
:1037A00001000200040008001000200010002000AA
:1037B00000000048000000480000004800000048E9
:1037C00000000048000000480004004800040048D1
:1037D000AE01002024020020AF010020B001002033
:1037E000B1010020B2010020B3010020B40100208B
:1037F000B5010020F0B587B06C4A1468DC4B1B683B
:103800001C1BE5086A4E6B4C7D2D04D33568642D76
:1038100001D13C25356055685D1BA54204D975680A
:10382000642D01D13C25756095685D1BA54204D9C6
:10383000B568642D01D13C25B560D5685D1BA542F6
:1038400004D9F568642D01D13C25F56015695D1B2F
:10385000A54204D93569642D01D13C2535615569EE
:103860005D1BA54204D97569642D01D13C257561A4
:1038700095695D1BA54204D9B569642D01D13C252C
:10388000B561D5695D1BA54204D9F469642C01D1E9
:103890003C24F46100290ED0012917D18100464C47
:1038A0006558002D12D161188000135064223250E7
:1038B000012008600AE081003F4C6558002D05D0CA
:1038C000611880000024345013500C603168059159
:1038D0003A4CE068451C084668436427394600971F
:1038E000FCF712FC32462668706351681446049156
:1038F000284648433946FCF707FCB063A1680391AA
:10390000284648433946FCF7FFFBF063E068029025
:10391000454328463946FCF7F7FB3064216901919D
:103920002646274CE068451C084668433946FCF7A4
:10393000EBFB216848630C46069176692846704384
:103940003946FCF7E1FBA0631948846928466043C7
:103950003946FCF7D9FB0699C8631548C7697D430A
:1039600028460099FCF7D0FB06990864781E874129
:103970001448C771611E8C418471711E8E4146715D
:10398000019A511E8A410271029A511E8A41C270E7
:10399000039A511E8A418270049A511E8A414270D4
:1039A000059A511E8A41027007B0F0BDC001002087
:1039B00000020020E7030000E00100207C0000205E
:1039C000C4000020B6010020F0B582B0684801684C
:1039D000FF222E3203685B1A93420BD203685B1AF4
:1039E000934207D203685B1A934203D203685B1ABF
:1039F0009342EFD35F49082201920A6010240C60C1
:103A0000026803689B1A322B0BD803689B1A322B6F
:103A100007D803689B1A322B03D803689B1A332BF1
:103A2000EFD3554E554A3260042200920A60202599
:103A30000D60026803689B1A322B0BD803689B1A2F
:103A4000322B07D803689B1A322B03D803689B1AC2
:103A5000332BEFD3494A326002220A60484B1C6084
:103A600003680768FF1A322F0BD80768FF1A322F36
:103A700007D80768FF1A322F03D80768FF1A332FB9
:103A8000EFD33E4B336001230B603D4E356007683A
:103A90000668F61B322E0BD80668F61B322E07D8A6
:103AA0000668F61B322E03D80668F61B332EEFD3BA
:103AB000314E324F3760019E0E610C610768066817
:103AC000F61B322E0BD80668F61B322E07D8066876
:103AD000F61B322E03D80668F61B332EEFD3264E84
:103AE000264F3760009E0E610D6106680768BF1B98
:103AF000322F0BD80768BF1B322F07D80768BF1BB0
:103B0000322F03D80768BF1B332FEFD31A4E1B4F3A
:103B100037600A611A4A146102680468A41A322CD8
:103B20000BD80468A41A322C07D80468A41A322CC3
:103B300003D80468A41A332CEFD3104A32600B6107
:103B40000F490D6101680268521A322A0BD80268C7
:103B5000521A322A07D80268521A322A03D8026847
:103B6000521A332AEFD30548306002B0F0BDC04688
:103B70001C0900201800004800300040AAAA0000DC
:103B80001804004802E008C8121F08C1002AFAD130
:103B900070477047002001E001C1121F002AFBD1CD
:103BA00070470000C1C081C1400101C3C003800251
:103BB00041C201C6C006800741C70005C1C581C416
:103BC000400401CCC00C800D41CD000FC1CF81CE8F
:103BD000400E000AC1CA81CB400B01C9C009800850
:103BE00041C801D8C018801941D9001BC1DB81DA56
:103BF000401A001EC1DE81DF401F01DDC01D801C98
:103C000041DC0014C1D481D5401501D7C0178016FE
:103C100041D601D2C012801341D30011C1D181D04D
:103C2000401001F0C030803141F10033C1F381F226
:103C300040320036C1F681F7403701F5C035803497
:103C400041F4003CC1FC81FD403D01FFC03F803E8E
:103C500041FE01FAC03A803B41FB0039C1F981F8CD
:103C600040380028C1E881E9402901EBC02B802AB7
:103C700041EA01EEC02E802F41EF002DC1ED81EC15
:103C8000402C01E4C024802541E50027C1E781E6FE
:103C900040260022C1E281E3402301E1C0218020CF
:103CA00041E001A0C060806141A10063C1A381A285
:103CB00040620066C1A681A7406701A5C065806417
:103CC00041A4006CC1AC81AD406D01AFC06F806E8E
:103CD00041AE01AAC06A806B41AB0069C1A981A84D
:103CE00040680078C1B881B9407901BBC07B807A57
:103CF00041BA01BEC07E807F41BF007DC1BD81BC95
:103D0000407C01B4C074807541B50077C1B781B6FD
:103D100040760072C1B281B3407301B1C07180704E
:103D200041B00050C190819140510193C0538052E5
:103D300041920196C056805741970055C195819494
:103D40004054019CC05C805D419D005FC19F819E8D
:103D5000405E005AC19A819B405B0199C0598058CE
:103D600041980188C04880494189004BC18B818AB4
:103D7000404A004EC18E818F404F018DC04D804C16
:103D8000418C0044C184818540450187C0478046FD
:103D900041860182C042804341830041C1818180CC
:103DA000404002030405060708090A0B0C0D0E0F1C
:103DB00010100102030405060708090A0B0C0D0E7A
:103DC0000F1000000000010203040000F03D000895
:103DD0000000002008000000843B0008F83D0008B7
:103DE00008000020180D0000943B000800000000AF
:083DF00000127A000700000038
:04000005080000B53A
:00000001FF
