:020000040800F2
:10000000700E0020810100089D1A00089B1A00084C
:1000100000000000000000000000000000000000E0
:10002000000000000000000000000000111D00089A
:1000300000000000000000009F1A0008131D0008C7
:1000400093010008000000009301000893010008DC
:100050009301000893010008930100089301000830
:1000600000000000930100089301000893010008BC
:1000700093010008930100089301000800000000AC
:100080009301000800000000000000009301000838
:10009000000000009301000893010008930100088C
:1000A000000000009301000800000000F11F00089C
:1000B00000F002F800F055F80CA030C808382418F9
:1000C0002D18671EA246AB4654465D46AC4201D190
:1000D00000F047F87E460F3EB6460FCC012633426D
:1000E00000D0FB1A3343A246AB461847BC2D000094
:1000F000DC2D0000103A02D378C878C1FAD8520734
:1001000001D330C830C101D504680C6070470000CD
:100110000023002400250026103A01D378C1FBD823
:10012000520700D330C100D50B60704710B5752958
:1001300002D100F091F810BD782902D100F0C2F888
:1001400010BD632902D100F025FA10BD732902D138
:1001500000F028FA10BD002010BD1FB51FBD10B55E
:1001600010BD00F03CFA1146FFF7F7FF02F0DEFB8E
:1001700000F054FA03B4FFF7F2FF03BC00F056FAA4
:100180000748804707480047FEE7FEE7FEE7FEE72F
:10019000FEE7FEE704480549054A064B70470000A4
:1001A0008F1D0008B100000870080020700E0020AC
:1001B000700A0020700A002070B504468569006846
:1001C000C10601D5302600E02026C00707D070BD4B
:1001D00062683046A1689047206A401C20626D1E0C
:1001E000F6D570BD70B5044685690078C00707D1A3
:1001F00070BD6268A16820209047206A401C206280
:100200006D1EF6D570BD70B50C460546012A05D0A9
:100210002878800600D5EA69002302E0012305E082
:100220005B1C934202D2E05C0028F9D1A869E61871
:10023000C01AA861286AC01828622846FFF7BCFFC8
:1002400004E06A682078A968641C9047B442F8D337
:100250002846FFF7C7FF70BDF7B500257529106860
:10026000009914A611D0C046C046002802DA4042C8
:1002700011A608E0009909688A0701D50FA602E0D7
:10028000490704D50EA6012501E0C046C046009FDF
:100290000024243704E000F089F930313955641C1A
:1002A0000028F8D12B4632462146009800F00FF97D
:1002B000FEBD0000000000002D0000002B0000002B
:1002C0002000000070B504460D4621461068C04667
:1002D000C0462188090502D50F4A7A4402E00E4A39
:1002E0007A440E3223460021243305E00607000934
:1002F000360F965D5E54491C0028F7D12078002304
:10030000000705D5702D03D0002901D0022311323A
:10031000204600F0DCF870BD8A29000001E004C02E
:10032000091F0429FBD28B0701D50280801CC90755
:1003300000D00270704700290BD0C30702D00270B2
:10034000401C491E022904D3830702D50280801C69
:10035000891EE3E70022EEE70022DFE7002203091F
:100360008B422CD3030A8B4211D300239C464EE0D0
:1003700003460B433CD4002243088B4231D303098C
:100380008B421CD3030A8B4201D394463FE0C3093E
:100390008B4201D3CB01C01A524183098B4201D356
:1003A0008B01C01A524143098B4201D34B01C01A41
:1003B000524103098B4201D30B01C01A5241C308B9
:1003C0008B4201D3CB00C01A524183088B4201D328
:1003D0008B00C01A524143088B4201D34B00C01A14
:1003E0005241411A00D201465241104670475DE029
:1003F000CA0F00D04942031000D3404253409C46EC
:10040000002203098B422DD3030A8B4212D38901A8
:10041000FC2212BA030A8B420CD3890192118B423F
:1004200008D3890192118B4204D389013AD09211E9
:1004300000E08909C3098B4201D3CB01C01A5241A4
:1004400083098B4201D38B01C01A524143098B426D
:1004500001D34B01C01A524103098B4201D30B0156
:10046000C01A5241C3088B4201D3CB00C01A52417B
:1004700083088B4201D38B00C01A5241D9D2430862
:100480008B4201D34B00C01A5241411A00D201469F
:100490005241104663465B1001D34042002B00D509
:1004A0004942704763465B1000D3404201B505499D
:1004B000002802DC491C084000E00846C046C0464F
:1004C00002BD00BFFFFFFF7F704770477047FFB559
:1004D00004460D4681B0243000902168880604D57A
:1004E0001022E0699143216000E00120A84201DD73
:1004F000471B00E000270498A1697A191018081A10
:10050000A0612078C00602D42046FFF755FE0026E1
:1005100008E003986268A168805D9047206A401CEB
:10052000761C206204988642F3DB2078C0060AD548
:100530002046FFF741FE06E06268A1683020904740
:10054000206A401C206238467F1E0028F4DC07E049
:1005500000986268A168405D9047206A401C206254
:1005600028466D1E0028F3DC2046FFF73BFE20786E
:10057000000602D5022005B0F0BD0120FBE710B552
:100580004369002B02D0C046C04601E0FFF73BFEA6
:10059000012010BD1278014624310A7000224A70F1
:1005A0000122ECE711680022D243E8E70146800807
:1005B000081A02091018020A1018020C1018C008B4
:1005C000820012185200891A01E0401C0A390A29D7
:1005D000FBD27047004870471800002070477546EE
:1005E000FFF7F8FFAE46050069465346C008C00055
:1005F000854618B020B5FFF7CDFD60BCB646002695
:100600000027C0C5C0C5C0C5C0C5C0C5C0C5C0C520
:10061000C0C5403D490849008D46704710B50446A5
:10062000C046C0462046FFF7A5FD10BD0149182071
:10063000ABBEFEE726000200F0B589B00D46009083
:100640004F687878397809020A184849CB884848B1
:100650000078039000010293181A103001908E88E0
:1006600030461030069003210223002005950496A1
:10067000002A52D02C89DBB2A3424ED2B2421DD303
:10068000019CA2421ADC901BC417640F0419E408F1
:1006900003252C1BE4B2E5004019E830C6B2012066
:1006A0000546B540324E34196678FF5C002F01D004
:1006B000AE4300E02E436670059D049E069CA24258
:1006C00021D3039C022C1ED1029CA2421BD8901B5A
:1006D000C217520F8218D2080324A21AD2B2D40031
:1006E0000019E830C4B201200646A640204CA218EA
:1006F00054786D68ED5C002D01D0344300E0B443C4
:100700005470059D049EC9B26F687A1852787C5C5B
:100710002402A218DB1CC91CAAE7002823D007A8C2
:100720000299C170002181704670017001210F4A49
:100730009170082129810E4B597801719978417186
:100740001A796860D978C9438171D243C27103981C
:10075000012804D107A84271017106202881009860
:10076000294601F01AFC012009B0F0BD78000020F4
:1007700000000020EFF3108072B600F0C3F9FEE72E
:1007800010B52121425C01462031022A10D10268B5
:1007900013680E24A343136013680124A34313605A
:1007A000C26B006C2346834053604C70002002E013
:1007B00004228263012000220A7010BDB0B52121FD
:1007C000415C022917D101462031026813680E24CA
:1007D000A343136013680125AB431360C26B036C22
:1007E0002C469C40546000240C704D70416B0029D5
:1007F00004D0884702E00421816301242046B0BD73
:10080000806B7047B0B5044600F0E2F80546601C06
:1008100002D0A8480078041900F0DAF8401BA04282
:10082000FAD3B0BDF0B588B007465E48874201D024
:10083000052000E003200090002206921446059750
:100840000E683046E04000D1AAE001250295A5409F
:100850002E4000D19EE0049403924A68032314467C
:100860001C40601E01281AD803230192069A934067
:10087000B8689843CF689740074305988760019808
:10088000C006C00F049A9040059F7F68AF4307439E
:1008900005984760059FD8435500019A08E018461F
:1008A000069DA840C043032C02D1069D1C461CE0B7
:1008B000FB6803408F68AF401F43059BDF60059FC7
:1008C000022C12D11C22039B1A400F239340049C3C
:1008D000E408A4003C19276A9F430B6993403B43FB
:1008E000059F23624A6803241440AC403B680340E0
:1008F00023433B609003800F039A049C4AD0784BBB
:100900001868029D284318601868284007902346FD
:100910000C2414400F20A04003229343079A234D38
:100920005A5982435B190920C006874208D02048E3
:10093000874207D01F488742009804D1022002E076
:10094000002000E00298A04010431860164880681C
:100950004B68DA0201D5304300E0B043049C124AF0
:100960009060D0689A0201D5304300E0B0430E4A4F
:10097000D06050689A0301D5304300E0B0430A4A82
:1009800050601068DA0301D5304300E0B043039AA9
:10099000054B1860121D0698801C0690641C4FE7DA
:1009A00008B0F0BD000C0048000401400800014000
:1009B000000400480008004800690840411E8841C2
:1009C0007047002A01D0182200E028228150704789
:1009D000214800687047C046B0B5002822D00446C0
:1009E0000068134901601349016061684160A168B2
:1009F0008160FFF7EDFF05462068C16849070AD00E
:100A0000FFF7E6FF401B2828F6D32068C0684007A0
:100A1000F2D00320B0BDE16802698A4204D10949DD
:100A2000016002E00120B0BD01610020B0BDC04600
:100A3000CCCC000055550000006802490160002040
:100A40007047C046AAAA00001A48007802490A68FE
:100A5000101808607047C0466C08002080B5A84890
:100A6000016810220A430260032000F005F800F03C
:100A700023F8002080BDC04670B504467D20C0002C
:100A80000C4E3178FFF76AFC0146A5480068FFF775
:100A900065FC00F025FD0125032C08D8002806D1AF
:100AA0000025E84321462A4600F028F874602846CD
:100AB00070BDC0460C00002082B0094801680122C8
:100AC00011430160016811400191019911074268C9
:100AD0000A434260406808400090009802B07047A6
:100AE00018100240002805D41F2108400121814030
:100AF000014801607047C04600E100E080B501F0A8
:100B0000C3FE80BD01F0E0FEF0B585B004468078FC
:100B1000C007394B3BD0012211071868C000019172
:100B2000029202D50020039007E01868084318607D
:100B300018680840049004980392304E3068C0054D
:100B400038D5032528022C4B5968014012D0626821
:100B5000024091420ED00298000459685A6802433C
:100B60005A605A6882435A600846254A10405860C5
:100B7000C80731D15868224908406168014359606B
:100B80000398002803D018680199884318602068EA
:100B9000C10705D0596903229143A2680A435A61EB
:100BA0000025800625D5586910218843E168014356
:100BB00059611EE002980702306838433060FFF741
:100BC00007FF054630683842BBD1FFF701FF401BE5
:100BD0006428F7D903250CE0FFF7FAFE0646494FD3
:100BE000054B58688007C5D4FFF7F2FE801BB8425A
:100BF000F6D9284605B0F0BD1C1002400070004038
:100C0000FFFCFFFFF8B500284ED004463C4B1A68A5
:100C1000012002408A4208D21A680126B2430A43E0
:100C20001A601A6832408A4267D1009121688A07A7
:100C30000ED54A0705D507221202494D2B681343EA
:100C40002B60474D2A68F0239A43A36813432B6017
:100C5000C9072BD12A4A10680126304000998842E2
:100C600007D91068B04308431060106830408842CC
:100C700043D12078400707D507200002384A116881
:100C80008143E0680843106000F04EF83449096879
:100C90000906090F1C4A515CC8402149086003201D
:100CA000FFF7EAFE002628E0012626E061682C4ACC
:100CB000121F012902D11268920305E0126802296D
:100CC00001D1920100E09207064616D5244A106829
:100CD0000326B04308431060FFF77AFE0746094D2C
:100CE0001F4800680C210140606880008142B1D03B
:100CF000FFF76EFEC01BA842F2D93046F8BDC046D1
:100D00000020024088130000902C0008044800686E
:100D1000134909684905490F024A515CC8407047A8
:100D200014000020A02C000810B50D490A680C23FF
:100D300013400C48082B08D193021B0F0AA4E45C53
:100D4000896AD20303D4104807E0044606E00F2264
:100D5000114009A2515CFFF701FB4443204610BD3E
:100D60000410024000127A00020304050607080975
:100D70000A0B0C0D0E0F10100102030405060708E4
:100D8000090A0B0C0D0E0F1000093D00F0B587B0DD
:100D900007460120002F00D1C2E104903878C00737
:100DA000F14E059711D071680C200140042906D03E
:100DB00071680140082937D17068C00334D53068A4
:100DC000800302D57868002838D0387880074ED55F
:100DD00070680007800F1BD070680C210140082943
:100DE00002D17068C00313D53068059CE168002902
:100DF00026D0012108433060FFF7EAFD0546306840
:100E000080072DD4FFF7E4FD401B0228F7D986E1C7
:100E100030688007059A02D5D06801280ED1306865
:100E2000F821884311691FE07968002900D1C1E0E9
:100E3000012900D0D7E001200104DDE004986FE132
:100E4000012188433060FFF7C3FD05463068800705
:100E50000DD5FFF7BDFD411B03200229F6D95FE147
:100E60003068F82188432169C90001433160059C3D
:100E70002078000720D42078400730D42078C0069E
:100E800000D4C4E0059A5169012971D1706B042125
:100E900001437163706B012101437163FFF798FD9A
:100EA0000546706B800700D5A9E0FFF791FD411B57
:100EB00003200229F5D933E1706AE169002918D0CD
:100EC000012108437062FFF783FD0546706A8007C1
:100ED000D1D4FFF77DFD401B0228F7D91FE1012285
:100EE0001107F069C0000191039211D50020029012
:100EF00016E0012188437062FFF76AFD0546706ABB
:100F00008007B8D5FFF764FD401B0228F7D906E13A
:100F1000F0690843F061F069084006900698029273
:100F2000924F3868C00511D505988168904F002907
:100F30002AD00129039A06D0306A052900D0BCE0E6
:100F4000042108433062306A1043BBE00398040276
:100F5000386820433860FFF73BFD0546386820427B
:100F6000E2D1FFF735FD411B03206429F6D9D7E014
:100F7000706B491D00D08CE0042188437063706B56
:100F8000F821884391693FE0306A039988433062D1
:100F9000306A042188433062FFF71AFD0546306A43
:100FA000800700D49BE0FFF713FD411B0320B942EB
:100FB000F5D9B5E00120010432688A43326081042A
:100FC00032688A4332604404FFF702FD0546059FFC
:100FD0003068204200D1F8E6FFF7FAFC411B0320FD
:100FE0006429F5D99CE03068052900D081E0012111
:100FF0008A041043306009043068084380E0706B55
:10100000F821884305998969C900014371630598EE
:10101000046A002C1AD070680C210140082917D1ED
:10102000012C04987CD00120030471680B40F26A03
:10103000059D6C6AA34273D10F231A40EC6AA24249
:101040006ED19A041140AA6A914269D1002067E0EA
:101050000120020631680492914331604706FFF790
:10106000B7FC0546022C0AD1049C3068384259D09E
:10107000FFF7AEFC411B03200229F6D950E030688F
:101080003842E3D0FFF7A4FC411B03200229F6D924
:1010900046E0042108437063706B0121884370634C
:1010A000FFF796FC0546706B8007B0D5FFF790FC04
:1010B000411B03200229F6D932E090433062306AA6
:1010C000042188433062FFF783FC0546306A8007BD
:1010D00005D4FFF77DFC401BB842F7D91FE002980A
:1010E0000028059C00D1C9E6F06901998843F061A8
:1010F000C4E601210A0490433060890430688843C3
:10110000306001204404FFF763FC0546306820424C
:1011100000D05AE6FFF75CFC401B6428F6D9032098
:1011200007B0F0BDF06A0F218843059AD16A0143E8
:10113000F1623D20000471688143906A0843516A5E
:1011400001437160306820433060FFF741FC044682
:101150003068384200D079E7FFF73AFC011B0320E2
:101160000229F5D9DCE7C0460010024000700040BB
:1011700088130000F8B500283AD016460F460446FA
:101180000093C06F002805D178200021215420460B
:1011900000F0A2FB2420E067206801680125A94334
:1011A0000160204601F056FA012822D0606A00282A
:1011B00002D0204601F0A4F80120820321688B6848
:1011C00013438B60C2038B6893433B438B60720570
:1011D000009B1B0413430A68074D15401D430D6017
:1011E0000A6802430A60204601F0E6F8054600E07E
:1011F00001252846F8BDC046FFFF00FCF0B585B0CC
:1012000000280CD0044605465C3541208600606A03
:10121000002806D0002020612046143006E001207E
:1012200064E06068B04203D020461C3000210160B9
:101230000027A7626878002804D100202870204683
:1012400000F056F80220049501906870206801684B
:101250004022914303900160E168A04A0125914238
:101260002A4600D33A461203ED020D430F273802F7
:101270000290854201D00025A5626568A7683540C7
:1012800021239B023B405B192569019805401D43C2
:101290006069012318402843FC36A7693E40064395
:1012A000E069382505403543206A802606402E43F4
:1012B0005803A56A05403543039E3560380C042564
:1012C0000540029801400A432A43606A1021014008
:1012D0001143606B082202400A437260D802F16930
:1012E0008143F1610020206604994B7005B0F0BD88
:1012F00010B586B0044601A81421FFF72DF8206828
:10130000124988421FD101200103114A53680B433F
:10131000536053680B4000930099400411680143E7
:101320001160116801400091002005900321049193
:10133000039002200290A02001900920C00600998D
:1013400001A9FFF76FFA06B010BDC046003001409A
:1013500014100240F0B587B0049306465C20305C60
:10136000012801D102206DE017460391354644352E
:10137000012004462876FFF72BFB05902946687E5E
:10138000012859D1039A002A58D0002F20460C4634
:1013900056D003200190607600253566F787B78721
:1013A000B26335642580F564356565803068012158
:1013B0000291C903B2688A4208D101684022914370
:1013C00001600121890302680A430260016849063D
:1013D00003D4016840220A43026071684A424A41CC
:1013E0007B1E594259411143F2683C4B9A422BD320
:1013F000002907D0039A1188C160901CB063F08F58
:10140000401EF087049FF08F002843D03068816829
:10141000890708D4FFF7DCFA791CF4D00599401A43
:10142000B842F0D353E0B16B0A88C260881CB06345
:10143000F08F401EF087E6E7022000E020460C46D1
:101440000021217607B0F0BD002908D00399097862
:101450000173B06B401CB063F08F401EF087049F97
:10146000F08F002816D030688168890708D4FFF70C
:10147000AFFA791CF4D00599401AB842F0D328E0AD
:10148000B16B09780173B06B401CB063F08F401EE4
:10149000F087E5E730463946059A00F025FB00283D
:1014A00001D020203066B0680028029808D10020C2
:1014B00006903268D1680691029891680691069963
:1014C000316E0029BCD1012060762846B8E70120A2
:1014D00000E0029860760198B2E7C046010700007C
:1014E000401E010E01D0012070470749074A506095
:1014F000074803680B400321890759180160002041
:101500009060072111607047FFFFFF0010E000E0CE
:1015100020ED00E07047B0B50446EFF310810120E4
:1015200080F310880922520123681D6895431D60CD
:1015300081F31088EFF3108180F31088226893689C
:101540008343936081F31088216E01290AD1EFF360
:10155000108180F31088226813681025AB43136054
:1015600081F31088254680352168896849061CD595
:10157000EFF3108180F310882068826840239A433B
:10158000826081F31088606F00280ED000214163D3
:10159000FFF7F6F8002808D0606FFFF731F9202830
:1015A00003D1102068600320B0BD21465A310020CD
:1015B000088021680F220A628A69082313438B611D
:1015C000202129602066B0BDB0B50B4C20680125F4
:1015D00005620221016204210162102101620821D9
:1015E00001622046FFF797FFF548C11C20462A46B6
:1015F00000F0ACF9B0BDC046F4000020F0B587B0F3
:1016000004460168CB6908682025024604952A40F3
:1016100001250695EF023E462F361E408D68202E8E
:1016200008D1002A06D0A16E002901D020468847A3
:1016300007B0F0BD2646583605963E460F36334273
:101640000AD0069E35406E426E4103949F4C204264
:10165000039C5BD1002E59D01840C206226E3CD5A7
:10166000012A3AD110220A628868400600D5D2E0E9
:10167000059D688829886B88002BD9D00E1A310403
:10168000D6D0EFF31081069F87F3108809235B0102
:101690002046246825689D43256081F31088EFF378
:1016A000108187F3108803689C68BC439C6081F3B9
:1016B00010880499059B9962002181660166EFF309
:1016C000108187F3108803681C6894431C6081F3C1
:1016D000108802214166B1B2E9E0010600D5E9E0D7
:1016E0004006A5D5EFF31080069981F31088216894
:1016F0000A6840239A430A6080F310880020E0665D
:101700000498E067204600F0C7F991E70296DC07ED
:101710000DD0069C2402044009D0069C0C62059C56
:10172000E46A3E46069F3C433746059EF462022625
:101730001C460196344066426641029C264309D10C
:10174000019C0C62059CE46A00940426009C2643DC
:10175000059CE66204261C460096344066426641BB
:10176000029C264307D1009C0C62059CE46A019E02
:101770003443059EF46215436A1E95411A0707D546
:10178000002D05D008220A62059DEC6A1443EC6224
:101790003B4209D0069A9206024005D00F62059C92
:1017A000E26A049D2A43E262059EF26A002A039CD3
:1017B00000D13DE71840800605D5A26E002A02D070
:1017C000204690472168F06A282202408868402518
:1017D0002840801800D173E0204600F049FE2068C0
:1017E0008068400668D5EFF31080069981F3108871
:1017F00021688A68AA438A6080F31088606F002895
:101800005AD033494163FEF7D9FF002800D10FE7D2
:10181000606F416B0BE7616F086843689DB2002DF4
:10182000059F00D104E73888854200D300E77B801C
:101830008969202935D0EFF31080069E86F3108841
:1018400024492031236825461C680C401C6080F325
:101850001088EFF3108086F3108829688B68B343F3
:101860008B6080F31088EFF3108086F3108829686E
:101870008B684024A3432C468B6080F31088049827
:10188000B86200202866EFF3108086F3108829687C
:101890000B6893430B6080F31088686FFEF770FF4E
:1018A0003888022161667988401A81B22046FFF7A4
:1018B00031FEBDE6E16EB7E62046FFF785FEB7E6EE
:1018C0002046FFF781FE0020F062B1E6200100040F
:1018D000D91F0008DFFEFFFFB0B586B0044601A89F
:1018E0001421FEF739FD20681649884228D1164890
:1018F00041680122059293031943416041681940F0
:1019000000910099510402680A430260006808408F
:1019100000900320049000240394022002900E20E3
:10192000019000980920C00601A9FEF77BFF1B2546
:10193000284621462246FFF7E1F82846FFF7D2F86D
:1019400006B0B0BD0038014014100240F8B5802345
:10195000C358202B22D10124002920D0002A1ED0D8
:1019600001231C038568A54204D10469002C01D120
:10197000CC0716D10024046605686D682D020AD5CF
:10198000EFF3108583F310889B06066837681F43C2
:10199000376085F3108800F0E1FE00E00224204665
:1019A000F8BD1C46FBE7000010B5D74CE1784A486B
:1019B00000F0EEF9E11C4B480122FFF7C7FF10BD14
:1019C00078000020F0B585B004930746C06F20284A
:1019D0004CD10D46012000295AD0002A58D00120B0
:1019E0000303B968994204D13969002901D1E90793
:1019F0004ED13C4650340020029060632120F867AD
:101A000016460193FEF7E4FF039066802680B868CF
:101A10000199884208D138690028029501D0002137
:101A20000291002800D105466088002820D0049843
:101A300000908021002638463246039B00F0E2FEEB
:101A4000002822D1002D04D02878396808856D1C23
:101A500008E0029A10880F49084039680885921CEE
:101A6000029235466088401E6080DDE702200FE06C
:101A700004980090402100223846039B00F0C2FEEB
:101A80002021F967002802D102E02020F867032016
:101A900005B0F0BDFF0100007047FEE7FEE77047AC
:101AA000B0B5994D687800280FD10B4C0021204625
:101AB00000F062FA68700221084A204600F036FA07
:101AC0000321074A204600F031FAE91C05480122AB
:101AD000FFF73CFFB0BDC0467C010020A91C0008F8
:101AE00039060008F4000020F8B516460F460546F2
:101AF0000324E1023A46334600F01AF800280FD1D9
:101B000028463946324600F07DF8002808D10320E7
:101B1000410228463A46334600F00AF8002805D02C
:101B2000286E2021014329662046F8BD0024FBE7EA
:101B3000F0B587B01D4616460F46044605A800219D
:101B400003910170FEF744FF281A8519FEF740FF44
:101B500003465448006823214143080D0495684317
:101B6000069020465C3000900294246820468168EC
:101B700039421BD0032569028F4203D1217B05AA7C
:101B800011700599711CF2D00193FEF721FF019BA2
:101B9000C01A049988420DD206980699491E0691EA
:101BA000002800D1049002980068E0E7039D2846D1
:101BB00007B0F0BD029C20684168E022914341607B
:101BC0004121890062688A420BD1A1680122D303B6
:101BD000994202D09202914203D10168402291437E
:101BE000016001214A03A36A934205D1036893432C
:101BF00003600368134303600020009A1070517063
:101C0000D5E7C046FEB516460D460446FEF7E0FE93
:101C1000301A4719FEF7DCFE0646224800684001EC
:101C2000000D7843029020465C3001902068816866
:101C300009060ED5691CFAD0FEF7CAFE801BB84211
:101C400009D202980299491E02910028EED1074656
:101C5000ECE70020FEBD20684168E022914341602E
:101C60004121890062688A420BD1A1680122D30315
:101C7000994202D09202914203D1016840229143DD
:101C8000016001214A03A36A934205D1036893438B
:101C900003600368134303600020019A10705170C1
:101CA0000320FEBD140000207CB54A6853781278EA
:101CB0001202D318144A9488A34222D3D588AB4287
:101CC0001FD86B46DD7000259D705C701D70082468
:101CD0000C810E4E74781C71B4785C7135794B6050
:101CE000F478E4439C71ED43DD713378012B04D12A
:101CF0006B465D711C7106230B810123937000F00C
:101D00004CF901207CBDC046780000200000002076
:101D1000704780B5FEF798FE80BD70B594B008ACF2
:101D2000201D1821FEF718FB00250795069505953F
:101D3000049513950520C004129011950226109663
:101D400001200F9010210C910B900A200890039510
:101D50000295019500952046FFF718F8002814D148
:101D60000795069505960720049004A801242146AE
:101D7000FEF748FF002808D1029500946846FEF758
:101D8000C3FE002801D114B070BDFEF7F3FC70470C
:101D9000F8B50D46044651482618A07AA189322983
:101DA00010D3002801D00020A0720020A081012DB6
:101DB00000D091E00020F0714A4971800321A172A6
:101DC0003080F8BD0027A781062800D984E0C046EE
:101DD0007844007940008744030416313F4E550093
:101DE000E5E77088294600F0BFF870803088401C15
:101DF0003080218A09024919218280B202286BD1E0
:101E00003780042066E03088411C3180B0880002B1
:101E10004019B08089B202295ED180B271888142B6
:101E200044D1208A00283ED0778037800521A172D6
:101E30002B49884250D30120F071F8BD70882946A3
:101E400000F092F87080A5733088411C3180002822
:101E500042D1378001203DE07088294600F084F8A7
:101E6000B57170803088411C3180002834D1B78032
:101E7000378002202EE0F079002819D03088401CED
:101E8000308020E03088411C3180B0880002401949
:101E9000B08089B202291FD180B27188814205D1F8
:101EA000F079002802D1204600F0B2F8A77213E0C2
:101EB0007088294600F058F870803088411C3180C5
:101EC000201885743088218A80B2884204D1B78076
:101ED00037800620A072F8BDF8BDC046120400008D
:101EE00001040000C1C00000F0B59524E40005190C
:101EF00000242646142E17D06F68002F02D0143508
:101F0000761CF7E76A606B812B810A782A70CA68B1
:101F1000EA60096929618249435CF2B20124934273
:101F200002D84018511C01702046F0BD70B5034620
:101F3000C720C0001C1800200546142D10D066686C
:101F4000002E02D008346D1CF7E72170626005494D
:101F50005C5CEAB20120944202D85918521C0A7003
:101F600070BDC046ED060000C2B24A405100CE4AE4
:101F7000515A000A48407047F8B500280BD00D466A
:101F80000446C0C86F2001012046FEF7E5F925721E
:101F9000C0C40120F8BD0020F8BD80B501224A7000
:101FA00000F001F880BD80B50022134600F0BAF8B9
:101FB00080BD000010B592B2054C2D232046FFF7DE
:101FC00001FD0448C11C01222046FFF7BFFC10BDE3
:101FD000F40000207800002080B5406A01465231AC
:101FE00000220A8152214252FFF7EEFA80BD000022
:101FF00080B50248FFF702FB80BDC046F400002018
:102000000000000000000000131023410000000841
:10201000F0B587B0044602AD14212846FEF79CF9BE
:1020200000276F70A07B28708320C000205CA87000
:10203000208A28812046123003903948261895209E
:10204000C00025183078874217D26A68002A11D05C
:1020500002A80078297881420CD1E86805902869A7
:10206000069002A9204690470599E96006992961E2
:10207000002830D114357F1CE4E700200690019041
:102080000590C720C000251801277078791E81426D
:102090000FD26A68002A09D002A880782978814284
:1020A00004D102A920469047002825D108357F1C7D
:1020B000EBE7DB20C7000125B078691E81422DD2F5
:1020C000E259002A04D002A920469047002809D1ED
:1020D0003F1D6D1CF0E7032818D002281ED1688927
:1020E00028811BE0032819D10198E051B078A8425B
:1020F00014D1401EB07011E003280FD10198686020
:102100007078B8420AD1401E707007E00020E86085
:102110002861F9B220462A4600F0E4FB07B0F0BD82
:10212000EC060000F0B585B00D463A49415C002947
:1021300003D00025284605B0F0BD02926F4947182C
:102140006D4944180121A1726A78002A0394009312
:1021500001D02A780AE0427A531C43727F23067A20
:10216000002E02D0DB431A4300E01A402A707A7036
:1021700001973970284B0490C718C1235340D8B237
:102180004000494A135AC0205840CB43002B10D07E
:10219000FA182C89CEB2F600F44094704440E2B2B2
:1021A0005200414CA25A80B2000A50405B1C491EAA
:1021B000ECE7A978019B1971C2B24A4051003A4A32
:1021C000515A000A48409871080A58710720039F25
:1021D00038602E897E60029A002A049C07D020462F
:1021E0002946009BFFF780FE002810D02E89002092
:1021F000388169680125002E01D000299AD0204637
:10220000324600F00BF8204600F050F892E7002527
:10221000BD728FE7A60400001C040000F0B587B073
:1022200002910146354808180190334806910F186D
:102230000023002A35D039688020461A964200D300
:102240001646059202980493C2182C480B18B1B296
:10225000039100290FD014780698C4543889C5B268
:1022600065406C00104D2C5B000A60403881491EAF
:10227000521C5B1CEDE73868039940183860049BDA
:10228000F318059A921B8028D3D114468022069811
:1022900001991D46FFF78EFE2B462246002038602E
:1022A000C7E707B0F0BDC046A82C0008B0B504468B
:1022B0001148225825186868002814D08020801AF8
:1022C000012806D80D4821182046FFF773FE00228A
:1022D0002A60A018697A094A81548018297A4170C5
:1022E0002868821C2A60054821182046FFF762FEF4
:1022F0000020A872B0BDC0469C0400001A04000073
:10230000B0B5416ACA0707D00122520403685C686D
:102310009443826A22435A608A0707D50122120435
:1023200003685C689443C26A22435A604A0707D52F
:102330000122920403685C689443026B22435A6052
:102340000A0707D50122D20303685C689443426BF5
:1023500022435A60CA0607D50122120303689C680B
:102360009443826B22439A608A0607D50122520366
:1023700003689C689443C26B22439A604A0610D556
:1023800001221305026854689C43056C2C43546079
:102390009D4206D103235B0554689C43436C234351
:1023A0005360090607D50121C904026853688B43AD
:1023B000806C18435060B0BDFEB5044684200026F2
:1023C000265027467837FEF703FB0346206801684E
:1023D00009071CD5254800900120029041050022E4
:1023E00020461D4600F00EFA00280ED0EFF31080B4
:1023F000029981F3108821680A6880239A430A6051
:1024000080F310882020E06726E020682B460068D3
:10241000400723D5154800900125A9050022204634
:1024200000F0F0F9002819D0EFF3108085F3108840
:1024300009214901226813688B43136080F31088D7
:10244000EFF3108085F3108821688A68AA438A60B8
:1024500080F310882020B860032005E02020E0678A
:10246000B8602666666630463E70FEBDFFFFFF011F
:10247000B0B5EFF31082012181F3108809235B01CD
:10248000046825689D43256082F31088EFF310826D
:1024900081F3108803689C688C439C6082F31088E9
:1024A000026E012A0AD1EFF3108281F310880168CD
:1024B0000B681024A3430B6082F310888021202234
:1024C0004250002181660166B0BDF8B55C21435AD7
:1024D00080214158026822290ED101465831928C40
:1024E0001A40436D1A804A88521E4A809A1C4265DF
:1024F0004A88002A05D0F8BD9069082101439161FE
:10250000F8BDEFF31083012282F3108809246401DF
:1025100005682E68A6432E6083F31088EFF31083BE
:1025200082F310880468A5689543A56083F310883A
:1025300020238B6200234366836604686468240258
:102540000AD5EFF3108482F3108895060668376881
:10255000AF43376084F31088046E012C14D10366F6
:10256000EFF3108382F310880468256810229543E6
:10257000256083F310880368DC69E40600D51A62DD
:102580000988FEF7C7FFF8BDFFF70EFAF8BDF8B5EA
:102590005C21435A80214158026822290FD101460B
:1025A0005831928C1A40436D1A704A88521E4A80E4
:1025B000426D521C42654A88002A05D0F8BD9069D8
:1025C000082101439161F8BDEFF31083012282F3EA
:1025D00010880924640105682E68A6432E6083F3E1
:1025E0001088EFF3108382F310880468A568954380
:1025F000A56083F3108820238B62002343668366E3
:102600000468646824020AD5EFF3108482F310880A
:10261000950606683768AF43376084F31088046E08
:10262000012C14D10366EFF3108382F31088046841
:10263000256810229543256083F310880368DC69C0
:10264000E40600D51A620988FEF764FFF8BDFFF7BB
:10265000ABF9F8BDB0B5044600680168374A0A40D6
:10266000A16823690B4365691D43E1690D43154367
:1026700005600322120343689343E2681A434260F1
:10268000A269236A13430B221202856895431D43F6
:1026900085602B4800688007000F2AA21358012587
:1026A000EA032C4891420DD1082B42D87B441B7978
:1026B0005B009F44043E1B3E153E3E3E1A00FEF763
:1026C00025FB0FE0082B34D87B441B795B009F442B
:1026D000043023301D3030302200FEF717FB17E0A6
:1026E000FEF722FB002801D122E01046400061687D
:1026F0004A081018FDF732FE0246103A16498A427F
:1027000017D201400007400F08430FE0FEF70CFB13
:10271000002801D10CE0104661684A081018FDF746
:102720001DFE014610390C4A914202D22168C86050
:1027300000250020A066E0662846B0BDF369FFFFD3
:1027400030100240000000000400000008000000FB
:102750000200000000127A00F0FF000010B55823BC
:10276000C252416500238366014658314A8082681F
:10277000002A08D001242403A24209D10269002AB8
:1027800008D11D4A07E00269002A03D07F2202E037
:102790008B8001E0FF228A80CB6222228A62EFF3E3
:1027A0001082012181F3108803689C680C439C60AF
:1027B00082F310880A038468544003691C4301D0E3
:1027C0000F4A00E00D4A8266EFF3108281F3108811
:1027D00000680168002C08D0002B06D009235B019B
:1027E0001943016082F3108804E02023194301603B
:1027F00082F31088002010BDFF010000CB240008E8
:102800008F250008FEB5029316460F46054603685D
:10281000014678310191089CD9693940C91B4A4267
:102820004A41B24222D1611CF6D0FEF7D1F8032210
:10283000002C1CD00299401AA04218D82B681968A5
:102840004907E9D5D969090713D4D9690905E3D539
:102850000121C902196228461446FFF709FE2246E3
:102860000020019908702020C86000E00022104676
:10287000FEBD08241C622846FFF7FAFD00200199DE
:102880000870CC600122F2E7002805D40322034639
:1028900093430C4A9A1806E00F220240083A032399
:1028A0009A43074BD2188007C00E8901C9B28140F4
:1028B000FF23834010689843084310607047C04668
:1028C0001CED00E000E400E0BFF34F8F0348044933
:1028D0000160BFF34F8F00BFFDE7C0460CED00E085
:1028E0000400FA0570B586B016465268002A19D061
:1028F0000D460446F068002801D0316902E03169D4
:10290000002906D0059104900020029001A92046DC
:102910009047002070600448215C491EA94201D103
:102920002018017006B070BDEC06000090B0FEF7F4
:1029300095F8FFF7F2F900270F970125A9058A48B6
:1029400002680A43026002680A400A920A9969040E
:1029500002680A43026002680A400A920A99A904BE
:1029600002680A430260006808400A900A98BA4860
:1029700029463A46FEF725F80920C606A90307911D
:10298000103130463A46FEF71CF80E970D970C951D
:102990000B950BACB0482146744A90470D950C97A7
:1029A000022009900B90AC482146704A90470D9543
:1029B0000C976F480B90304621466C4A90476B4A03
:1029C00003200E900D970C9510200B903046214659
:1029D00090470D950C9709980B90A0482146634AA3
:1029E00090470E970D9702950C9507980B903046DF
:1029F00021465E4A9047974C5E485F49A160E76078
:102A000020616061204608300590FDF7E5FF002851
:102A100000D0A7E008200721A763E763276461646B
:102A2000A764E06428205549514DBF3541229300E9
:102A30001A46FC32A1610193E36127626562A762D5
:102A4000E76222636063204618300990FEF7D6FBE8
:102A5000002800D086E04A480C214A4A07624762B3
:102A6000E1235B028CC0076047608160C76007613B
:102A700039463A463B460C38FEF77CFB002871D1BC
:102A8000FFF70EF800F080F8754C0897039706974B
:102A9000042F18D0E019417842798A4211D041714F
:102AA000611C042264230998FEF754FC10250022BF
:102AB00030462946FDF785FF012230462946FDF7BD
:102AC00080FF7F1CE4E763488578FDF781FF002DD8
:102AD00019D008990029069F079D2CD0049A801AC6
:102AE000322838D330462946FDF766FF421E501E75
:102AF000824130462946FDF764FF0398401C0B28AD
:102B00001CD2039025E008990029069F079D12D04A
:102B10000499401A0199EF3188421CD93046294660
:102B2000FDF74AFF01280FD10022304629460892BE
:102B3000FDF747FF0FE0049002980BE000214548A5
:102B400081700891039106E0012230462946FDF785
:102B500038FF002008900A20FDF754FE0598FDF785
:102B60006BFF95E7FDF706FE1410024025080008EC
:102B700041060000FF0F000000300040003001401F
:102B8000F400002000380140F8B50920C5060124F2
:102B900028462146FDF710FF002803D12D48017873
:102BA0002143017040212846FDF706FF002804D18B
:102BB0002848017802220A43027061022846FDF784
:102BC000FBFE002804D12348017804220A43027046
:102BD000A1022846FDF7F0FE002804D11D48017827
:102BE00008220A4302701C480221FDF7E5FE002876
:102BF00004D11848017810220A43027017480227AE
:102C00003946FDF7D9FE002803D0154800780101A8
:102C100002E01348077020210E4802784A432243FD
:102C200082808918491EC18018300D49491C042230
:102C30006423FEF78FFB102700220A4E28463946F0
:102C4000B047284639462246B04703482146224627
:102C5000B047F8BD78000020001400480004004888
:102C600000000020C30900083031323334353637D4
:102C700038394142434445464030580030313233C0
:102C800034353637383961626364656640307800C0
:102C9000000000000000000001020304060708090C
:102CA00000000000010203040000C1C081C1400116
:102CB00001C3C003800241C201C6C006800741C7EC
:102CC0000005C1C581C4400401CCC00C800D41CDBC
:102CD000000FC1CF81CE400E000AC1CA81CB400B8C
:102CE00001C9C009800841C801D8C018801941D95C
:102CF000001BC1DB81DA401A001EC1DE81DF401FEC
:102D000001DDC01D801C41DC0014C1D481D54015FB
:102D100001D7C017801641D601D2C012801341D30B
:102D20000011C1D181D0401001F0C030803141F19B
:102D30000033C1F381F240320036C1F681F74037EB
:102D400001F5C035803441F4003CC1FC81FD403DBB
:102D500001FFC03F803E41FE01FAC03A803B41FB8B
:102D60000039C1F981F840380028C1E881E94029DB
:102D700001EBC02B802A41EA01EEC02E802F41EFEB
:102D8000002DC1ED81EC402C01E4C024802541E5FB
:102D90000027C1E781E640260022C1E281E340230B
:102DA00001E1C021802041E001A0C060806141A11B
:102DB0000063C1A381A240620066C1A681A74067EB
:102DC00001A5C065806441A4006CC1AC81AD406DBB
:102DD00001AFC06F806E41AE01AAC06A806B41AB8B
:102DE0000069C1A981A840680078C1B881B940795B
:102DF00001BBC07B807A41BA01BEC07E807F41BFEB
:102E0000007DC1BD81BC407C01B4C074807541B5FA
:102E10000077C1B781B640760072C1B281B340730A
:102E200001B1C071807041B00050C190819140519A
:102E30000193C053805241920196C05680574197EA
:102E40000055C19581944054019CC05C805D419DBA
:102E5000005FC19F819E405E005AC19A819B405B8A
:102E60000199C059805841980188C04880494189DA
:102E7000004BC18B818A404A004EC18E818F404FEA
:102E8000018DC04D804C418C0044C18481854045FA
:102E90000187C047804641860182C042804341830A
:102EA0000041C18181804040C82E00080000002000
:102EB00018000000F4000008E02E000818000020B0
:102EC000580E000010010008010000FFFF0000FF85
:102ED000FF000000010000000400000000127A0062
:04000005080000B13E
:00000001FF
